:020000040000FA
:100000000CEF00F0FFFFFFFFFACF11F1FBCF12F171
:10001000E9CF13F19CED03F000EE7EF0780EF66E62
:10002000000EF76E10EE04F033EC00F000EE00F07E
:1000300010EE7EF02CEC00F004EE00F011EE00F07B
:100040002CEC00F00FEE70F010EE0FF02CEC00F046
:10005000000EF86E3EEF00F0EE6AE550E150FCE174
:10006000E250FAE112000900F5CFEEFFE550E15051
:10007000FAE1E250F8E1120001000101000E936E76
:1000800092689568030E966E010EC26E080EC16EE0
:10009000AB0EC06EC08ED80ED56E9F8C9D9CF28C20
:1000A000F28AF28EF29690EF03F0010EC26EC08ECD
:1000B000C282000E006E000E016E5FEF00F0C2B251
:1000C00064EF00F066EF00F05FEF00F0C450002630
:1000D000000E01220050016E006AC3500026000E7F
:1000E0000122050ED89000360136E82E72EF00F09E
:1000F000020E005C000E0158D8B081EF00F083EFD3
:1001000000F087EF00F0010E006E000E016E4A5005
:10011000D8B48DEF00F08FEF00F0DFEF00F0F00EBD
:10012000005C3F0E0158D8B098EF00F09AEF00F055
:10013000A4EF00F00050F0083F6E0150D8A0E82A6C
:100140003F08406EAAEF00F0100E00243F6EC00E74
:100150000120406EF00E005C3F0E0158D8B0B3EFA6
:1001600000F0B5EF00F0CBEF00F03250030D020EBF
:10017000F324E96EEA6A000EEA22EECF00F1EDCF39
:1001800001F13F500101005D006E40500101015935
:10019000016EDFEF00F03250030D020EF324E96E22
:1001A000EA6A000EEA22EECF00F1EDCF01F13F50F6
:1001B00001010025006E405001010121016E00C0C7
:1001C00034F001C035F0366A050EC26EC08EC282B0
:1001D000000E006E000E016EEEEF00F0C2B2F3EF03
:1001E00000F0F5EF00F0EEEF00F0C4500026000E36
:1001F00001220050016E006AC3500026000E012249
:10020000436605EF01F007EF01F00EEF01F0000E7D
:10021000000100015F6F000E0001606F000100012E
:100220005F5100260001000160510122800E001480
:100230005B6E030E01145C6ED8905B365C365BC05F
:100240005DF05CC05EF000507F0B586E090EC26E10
:10025000C09EC2820101006F000E3E6E010100517E
:1002600032EF01F0C2B237EF01F039EF01F032EFB7
:1002700001F0C4503E263E6640EF01F042EF01F02F
:1002800048EF01F00101006F010E3E6E01010051C7
:100290003EC056F0576A0D0EC26EC09EC28201016A
:1002A000006F000E3E6E0101005157EF01F0C2B227
:1002B0005CEF01F05EEF01F057EF01F0C4503E2615
:1002C0003EC06CF0110EC26EC08EC282000E006E77
:1002D000000E016E6CEF01F0C2B271EF01F073EF2E
:1002E00001F06CEF01F0C4500026000E0122005016
:1002F000016E006AC3500026000E0122060ED8903F
:1003000000360136E82E7FEF01F0020E005C000E91
:100310000158D8B08EEF01F090EF01F094EF01F0AA
:10032000010E006E000E016E00C044F001C045F0E9
:10033000466A150EC26EC09EC2820101006F000E99
:100340003E6E01010051A5EF01F0C2B2AAEF01F02B
:10035000ACEF01F0A5EF01F0C4CF3EF03EC06AF073
:1003600083B0B5EF01F0B7EF01F0CBEF01F0000182
:1003700000016D51D8B4BFEF01F0C1EF01F0CBEF38
:1003800001F0010E3D260101006F000E0001000189
:100390006D6F01010051010E3C5C080E3D58D8A064
:1003A000D4EF01F0D6EF01F0DAEF01F0000E3C6E71
:1003B000000E3D6E83A0DFEF01F0E1EF01F0E9EF09
:1003C00001F00101006F010E000100016D6F0101DC
:1003D000005183B2EEEF01F0F0EF01F003EF02F015
:1003E000000100016451D8B4F8EF01F0FAEF01F018
:1003F00003EF02F0432A0101006F000E000100012B
:10040000646F010100514304D8A409EF02F00BEF1F
:1004100002F015EF02F00101006F000E0001000173
:10042000806F010100511DEF02F00101006F010E0C
:1004300000010001806F010100514350030AD8A45C
:1004400024EF02F026EF02F02CEF02F00101006F22
:10045000000E436E0101005183A231EF02F033EF31
:1004600002F03BEF02F00101006F010E00010001FC
:10047000646F0101005183B440EF02F042EF02F0DB
:1004800065EF02F0000100016551D8B44AEF02F0B7
:100490004CEF02F065EF02F00101006F000E000169
:1004A0000001656F01010051090E3B26010E3A5C07
:1004B000120E3B58D8A05FEF02F061EF02F065EF3B
:1004C00002F0000E3A6E000E3B6E83A46AEF02F05B
:1004D0006CEF02F074EF02F00101006F010E0001F9
:1004E0000001656F0101005183B879EF02F07BEFE5
:1004F00002F0A0EF02F0000100016351D8B483EFD5
:1005000002F085EF02F0A0EF02F00101006F000E93
:1005100000010001636F0101005142044110D8A4A1
:1005200094EF02F096EF02F09CEF02F0000E416EA5
:10053000000E426EA0EF02F0000E416E010E426E00
:1005400083A8A5EF02F0A7EF02F0AFEF02F00101E0
:10055000006F010E00010001636F0101005183BAB9
:10056000B4EF02F0B6EF02F0F1EF02F0000100018B
:100570006651D8B4BEEF02F0C0EF02F0F1EF02F026
:100580000101006F000E00010001666F01010051C2
:100590003250030D020EF324E96EEA6A000EEA22DD
:1005A00034C0EEFF35C0EEFF36C0EDFF324A332ACD
:1005B000000100017E4B7F2B3250080A3310D8A473
:1005C000E4EF02F0E6EF02F0F1EF02F0000E326E1F
:1005D000000E336E010E000100017E6F000E00015F
:1005E0007F6F83AAF6EF02F0F8EF02F000EF03F05E
:1005F0000101006F010E00010001666F0101005151
:1006000083BC05EF03F007EF03F03AEF03F00001BE
:1006100000016951D8B40FEF03F011EF03F03AEF86
:1006200003F00101006F000E00010001696F01017C
:1006300000514A50D8B41FEF03F021EF03F034EF1C
:1006400003F00101006F000E4A6E01010051010E1E
:10065000000100017E6F000E00017F6F000E326E00
:10066000000E336E3AEF03F00101006F010E4A6E87
:100670000101005183AC3FEF03F041EF03F049EF7C
:1006800003F00101006F010E00010001696F01011B
:1006900000514A50D8B44FEF03F051EF03F07AEF16
:1006A00003F0544A552A5550800A0101006F5650F4
:1006B000545C5750800A01010059D8A062EF03F042
:1006C00064EF03F06AEF03F0000E546E000E556EF7
:1006D000594A5A2A5950030A5A10D8A472EF03F003
:1006E00074EF03F07AEF03F0324A332A000E596EAA
:1006F000000E5A6E000100017F51331804E1000121
:1007000000017E513218D8A488EF03F08AEF03F07D
:100710008EEF03F0000E326E000E336E98EF03F092
:10072000000100018151010A01E1BFD498EF03F0FB
:1007300053EF00F00CEF00F00600EACF14F1E1CF28
:1007400015F1E2CF16F1D9CF17F1DACF18F1F3CFC7
:1007500019F1F4CF1AF1F6CF1BF1F7CF1CF1F8CF56
:100760001DF1F5CF1EF16BC081FFFE0E01010101ED
:100770000A6F7D0E01010B6FFE0E010101010C6F6E
:10078000630E01010D6FFE0E01010101086F630E82
:100790000101096F445051264550522246505322C0
:1007A00051C04EF052C04FF053C050F0000E4E16E4
:1007B000F00E4F160F0E50160C0E01010E6FD89052
:1007C00050324F324E3201010E2FDFEF03F03CC0AA
:1007D0000EF13DC00FF10101106B01010E514E26CB
:1007E00001010F514F22010110515022000E4E24E1
:1007F00001010E6F090E4F2001010F6F01010E5113
:1008000001010101082701010F5101010101092323
:10081000010108C1F6FF010109C1F7FF0800F55009
:100820007F0F00010001686F000100016A510001A3
:1008300000016803F3500001686F0001F4CF5FF01E
:1008400000010001606BF4CF68F0000100018051ED
:10085000000100016803F3500001686FF3504B6E14
:100860004C6A4D6A810E4B26FF0E4C22FF0E4D2224
:10087000080ED8904B364C364D36E82E39EF04F042
:100880000001D89000015F37000160370001D89067
:1008900000015F3700016037345047263550482249
:1008A000365049224B5047264C5048224D50492241
:1008B00083A65DEF04F05FEF04F065EF04F0000E37
:1008C000476E000E486E000E496E47C037F048C0B4
:1008D00038F049C039F0000E3716FC0E3816030EFA
:1008E00039160A0E01010E6FD8903932383237327C
:1008F00001010E2F74EF04F03750010101010A27A6
:100900003850010101010B234150010101010A2767
:100910004250010101010B2301010AC1F6FF01014F
:100920000BC1F7FF08000001F5CF6EF000010001D8
:100930006EC061F000010001626B000100016C51AA
:10094000000100016E03F35000016E6FF450376E2A
:10095000386A396AD8903736383639363750000118
:1009600000016127385000010001622300010001ED
:100970006151010101010C270001000162510101D7
:1009800001010D235DC00EF15EC00FF13A5001016F
:100990000E273B5001010F2301010E5101010101FE
:1009A0000C2701010F51010101010D2301010E6FFF
:1009B000800E00010001686F01010E5101010E6FF0
:1009C000800E00010001676F01010E5101010CC191
:1009D000F6FF01010DC1F7FF0800F550000100010D
:1009E00068270101010E01010D2701010CC1F6FF6D
:1009F00001010DC1F7FF0800F55000010001672754
:100A000058507F08000100016803F3500001686F2F
:100A1000F4CF68F05850000100016703F350000163
:100A2000676FF4CF67F0000100016751000100011A
:100A3000682768C06BF0AA0ED66EF2941EC1F5FF4F
:100A40001DC1F8FF1CC1F7FF1BC1F6FF1AC1F4FF5F
:100A500019C1F3FF18C1DAFF17C1D9FF16C1E2FFB0
:100A600015C1E1FF14C1EAFF13C1E9FF12C1FBFF89
:100A700011C1FAFF1100000E01010101066F000E05
:100A80000101076F0101010102A149EF05F04BEFE0
:100A900005F057EF05F001010101045101010101C9
:100AA000062701010101055101010101072301018F
:100AB000D89001010437010105370101D8900101E7
:100AC0000333010102330101010103510211D8A4D2
:100AD0006CEF05F06EEF05F042EF05F006C102F194
:100AE00007C103F174EF05F01200FFFFFFFFFFFFE6
:100AF000FFFFFFFFFFFFFFFFFFFFFFFFFFFFFFFF06
:100B0000FFFFFFFFFFFFFFFFFFFFFFFFFFFFFFFFF5
:100B1000FFFFFFFFFFFFFFFFFFFFFFFFFFFFFFFFE5
:100B2000FFFFFFFFFFFFFFFFFFFFFFFFFFFFFFFFD5
:1063F000FFFFFFFFFFFFFFFFFFFFFFFFFFFF0003A8
:1064000006090C0F1215181B1E2124272A2D3033C4
:1064100036393B3E414346494B4E50525557595BE6
:106420005E6062646667696B6C6E707172747576BB
:106430007778797A7B7B7C7D7D7E7E7E7E7E7E7E9C
:106440007E7E7E7E7D7D7C7B7B7A797877767574A7
:106450007271706E6C6B6967666462605E5B5957DF
:106460005552504E4B494F43413E3B393633302D08
:106470002A2724211E1B1815120F0C09060300FCE5
:10648000F9F6F3F0EDEAE7E4E1DEDBD8D5D2CFCCE4
:10649000C9C6C4C1BEBCB9B6B4B1AFADAAA8A6A4A2
:1064A000A19F9D9B9998969493918F8E8D8B8A89AD
:1064B00088878685848483828281818181818181AC
:1064C00081818181828283848485868788898A8B81
:1064D0008D8E8F9193949698999B9D9FA1A4A6A829
:1064E000AAADAFB1B4B6B9BCBEC1C4C6C9CCCFD2D7
:1064F000D5D8DBDEE1E4E7EAEDF0F3F6F9FCFF05E1
:106500000B11171D23292F353A40454A4F54585D2A
:106510006165686B6F717476787A7B7C7D7D7D7D3B
:106520007D7C7B7A787674716F6B6865615D585499
:106530004F4A45403A352F29231D17110B05FFF807
:10654000F2ECE6E0DAD4CEC8C3BDB8B3AEA9A5A0DC
:106550009C9895928E8C89878583828181818181A7
:10656000818182838587898C8E9295989CA0A5A92C
:10657000AEB3B8BDC3C8CED4DAE0E6ECF2F8FF059E
:106580000B11171D23292F353A40454A4F54585DAA
:106590006165686B6F717476787A7B7C7D7D7D7DBB
:1065A0007D7C7B7A787674716F6B6865615D585419
:1065B0004F4A45403A352F29231D17110B05FFF887
:1065C000F2ECE6E0DAD4CEC8C3BDB8B3AEA9A5A05C
:1065D0009C9895928E8C8987858382818181818127
:1065E000818182838587898C8E9295989CA0A5A9AC
:1065F000AEB3B8BDC3C8CED4DAE0E6ECF2F800081A
:10660000111A232C353D454D545A61666B707477D1
:106610007A7C7D7D7D7D7B7976736F6A655F58516D
:106620004A423A322920170E05FCF3EAE1D8CFC6D8
:10663000BEB6AFA8A19B96918D8986848282828204
:10664000828486898D91969BA1A8AFB6BEC6CFD80D
:10665000E1EAF3FC050E172029323A424A51585F0D
:10666000656A6F7376797B7D7D7D7D7C7A777470CA
:106670006B66615A544D453D352C231A110800F6BE
:10668000EDE4DBD2C9C1B9B1AAA49D98938E8A87E3
:106690008482828282828385888B8F94999FA6AD23
:1066A000B4BCC4CCD5DEE7F0F9020B141D262F389C
:1066B00040484F565D63686D7175787A7C7D7D7D4D
:1066C0007C7A7875716D68635D564F4840382F2627
:1066D0001D140B02F9F0E7DED5CCC4BCB4ADA69F07
:1066E00099948F8B888583828282828284878A8E26
:1066F00093989DA4AAB1B9C1C9D2DBE4EDF6FF0B12
:1067000017232F3A454F5861686F74787B7D7D7DE4
:106710007B78746F6861584F453A2F23170BFFF24F
:10672000E6DACEC3B8AEA59C958E8985828181813B
:106730008285898E959CA5AEB8C3CEDAE6F2FFFFBE
:106740000B17232F3A454F5861686F74787B7D7D16
:106750007D7B78746F6861584F453A2F23170BFF84
:10676000F2E6DACEC3B8AEA59C958E89858281818A
:10677000818285898E959CA5AEB8C3CEDAE6F2FFFC
:10678000FF0B17232F3A454F5861686F74787B7D54
:106790007D7D7B78746F6861584F453A2F23170BC6
:1067A000FFF2E6DACEC3B8AEA59C958E89858281CC
:1067B00081818285898E959CA5AEB8C3CEDAE6F23A
:1067C000FFFF0B17232F3A454F5861686F74787B92
:1067D0007D7D7D7B78746F6861584F453A2F231714
:1067E0000BFFF2E6DACEC3B8AEA59C958E89858202
:1067F0008181818285898E959CA5AEB8C3CEDAE66B
:10680000F2FFFF0E1D2C3A48545F6870767A7D7D4A
:106810007C79746D655A4F4235261708F8E9DACB52
:10682000BDB0A59A928A8581818182868C939CA72E
:10683000B3C0CEDDECFB0B1A293845515D666F7590
:106840007A7D7D7D7A756F665D514538291A0BFB1F
:10685000ECDDCEC0B3A79C938C8682818181858A32
:10686000929AA5B0BDCBDAE9F808172635424F5AFF
:10687000656D74797C7D7D7A7670685F54483A2CBA
:106880001D0EFFEFE0D1C3B5A99E958D8783818151
:106890008184899098A3AEBBC8D7E6F5051423324E
:1068A000404D58636B73787C7D7D7B77716A615650
:1068B0004A3D2F201102F2E3D4C5B8ACA0978E88D0
:1068C0008381818183888E97A0ACB8C5D4E3F2021E
:1068D00011202F3D4A56616A71777B7D7D7C7873EC
:1068E0006B63584D4032231405F5E6D7C8BBAEA301
:1068F0009890898481818183878D959EA9B5C3D124
:10690000E0EFFF1123354554616B747A7D7D7B7612
:106910006F65584A3A291705F2E0CEBDAEA0958CB6
:1069200085818181858C95A0AEBDCEE0F2051729C9
:106930003A4A58656F767B7D7D7A746B6154453534
:106940002311FFECDAC8B8A99C92898381818287E0
:106950008E98A5B3C3D4E6F80B1D2F404F5D687128
:10696000787C7D7C7871685D4F402F1D0BF8E6D4F4
:10697000C3B3A5988E878281818389929CA9B8C868
:10698000DAECFF1123354554616B747A7D7D7B769B
:106990006F65584A3A291705F2E0CEBDAEA0958C36
:1069A00085818181858C95A0AEBDCEE0F205172949
:1069B0003A4A58656F767B7D7D7A746B61544535B4
:1069C0002311FFECDAC8B8A99C9289838181828760
:1069D0008E98A5B3C3D4E6F80B1D2F404F5D6871A8
:1069E000787C7D7C7871685D4F402F1D0BF8E6D474
:1069F000C3B3A5988E878281818389929CA9B8C8E8
:106A0000DAECFF14293D4F5F6B757B7D7C776F63FC
:106A100054422F1A05EFDAC5B3A3958A8381818486
:106A20008C97A5B5C8DDF2081D3245566570787D96
:106A30007D7A746A5D4D3A2611FBE6D1BDAC9C901F
:106A40008781818187909CACBDD1E6FB11263A4DB0
:106A50005D6A747A7D7D7870655645321D08F2DD79
:106A6000C8B5A5978C848181838A95A3B3C5DAEFD5
:106A7000051A2F4254636F777C7D7B756B5F4F3DAA
:106A80002914FFE9D4C0AE9E9288828181868E9AB5
:106A9000A9BBCEE3F80E23384A5A68737A7D7D7914
:106AA0007166584835200BF5E0CBB8A7988D8581E5
:106AB00081838993A0B0C3D7EC02172C4051616D3C
:106AC000767C7D7C766D6151402C1702ECD7C3B08B
:106AD000A09389838181858D98A7B8CBE0F50B20A1
:106AE0003548586671797D7D7A73685A4A38230E25
:106AF000F8E3CEBBA99A8E8681818288929EAEC031
:106B0000D4E9FF172F455868747B7D7B746858451E
:106B10002F17FFE6CEB8A595898281828995A5B801
:106B2000CEE6FF172F455868747B7D7B7468584507
:106B30002F17FFE6CEB8A595898281828995A5B8E1
:106B4000CEE6FF172F455868747B7D7B74685845E7
:106B50002F17FFE6CEB8A595898281828995A5B8C1
:106B6000CEE6FF172F455868747B7D7B74685845C7
:106B70002F17FFE6CEB8A595898281828995A5B8A1
:106B8000CEE6FF172F455868747B7D7B74685845A7
:106B90002F17FFE6CEB8A595898281828995A5B881
:106BA000CEE6FF172F455868747B7D7B7468584587
:106BB0002F17FFE6CEB8A595898281828995A5B861
:106BC000CEE6FF172F455868747B7D7B7468584567
:106BD0002F17FFE6CEB8A595898281828995A5B841
:106BE000CEE6FF172F455868747B7D7B7468584547
:106BF0002F17FFE6CEB8A595898281828995A5B821
:106C0000CEE6001B364E62717B7E7C7466523B2161
:106C100006EACFB6A1918681828996A8BED8F30FE5
:106C20002A43596B777E7E786C5B462D12F6DBC16A
:106C3000AA988A8281858F9FB4CCE7031E3950645D
:106C4000727B7E7B726450391E03E7CCB49F8F85C4
:106C500081828A98AAC1DBF6122D465B6C787E7E13
:106C6000776B59432A0FF3D8BEA896898281869103
:106C7000A1B6CFEA06213B5266747C7E7B71624EE0
:106C8000361B00E4C9B19D8E8481838B99ADC4DE2F
:106C9000F91530495E6E797E7D76695741270CF093
:106CA000D5BCA6948881818793A4B9D2ED09243EEE
:106CB0005567757D7E7A70604B3318FCE1C6AF9BDB
:106CC0008D8481848D9BAFC6E1FC18334B60707A54
:106CD0007E7D7567553E2409EDD2B9A493878181E5
:106CE0008894A6BCD5F00C27415769767D7E796ED5
:106CF0005E493015F9DEC4AD998B8381848E9DB1D8
:106D0000C9E47F7E7D7C7B7A79787776757473723F
:106D100071706F6E6D6C6B6A6968676665646362DB
:106D200061605F5E5D5C5B5A5958575655545352CB
:106D300051504F4E4D4C4B4A4948474645444342BB
:106D400041403F3E3D3C3B3A3938373635343332AB
:106D500031302F2E2D2C2B2A29282726252423229B
:106D600021201F1E1D1C1B1A19181716151413128B
:106D700011100F0E0D0C0B0A09080706050403027B
:106D80000100FFFEFDFCFBFAF9F8F7F6F5F4F3F26B
:106D9000F1F0EFEEEDECEBEAE9E8E7E6E5E4E3E25B
:106DA000E1E0DFDEDDDCDBDAD9D8D7D6D5D4D3D24B
:106DB000D1D0CFCECDCCCBCAC9C8C7C6C5C4C3C23B
:106DC000C1C0BFBEBDBCBBBAB9B8B7B6B5B4B3B22B
:106DD000B1B0AFAEADACABAAA9A8A7A6A5A4A3A21B
:106DE000A1A09F9E9D9C9B9A99989796959493920B
:106DF00091908F8E8D8C8B8A8988878685848382FB
:106E000082817E7E7E7E7E7E7E7E7E7E7E7E7E7E9B
:106E10007E7E7E7E7E7E7E7E7E7E7E7E7E7E7E7E92
:106E20007E7E7E7E7E7E7E7E7E7E7E7E7E7E7E7E82
:106E30007E7E7E7E7E7E7E7E7E7E7E7E7E7E7E7E72
:106E40007E7E7E7E7E7E7E7E7E7E7E7E7E7E7E7E62
:106E50007E7E7E7E7E7E7E7E7E7E7E7E7E7E7E7E52
:106E60007E7E7E7E7E7E7E7E7E7E7E7E7E7E7E7E42
:106E70007E7E7E7E7E7E7E7E7E7E7E7E7E7E7E7E32
:106E80007E7E8181818181818181818181818181F8
:106E900081818181818181818181818181818181E2
:106EA00081818181818181818181818181818181D2
:106EB00081818181818181818181818181818181C2
:106EC00081818181818181818181818181818181B2
:106ED00081818181818181818181818181818181A2
:106EE0008181818181818181000306090C0F121546
:106EF000181B1E2124272A2D303336393B3E4143AF
:106F000046494B4E50525557595B5E606264666706
:106F1000696B6C6E7071727475767778797A7B7B39
:106F20007C7D7D7E7E7E7E7E7E7E7E7E7E7E7D7D87
:106F30007C7B7B7A7978777675747271706E6C6B06
:106F40006967666462605E5B59575552504E4B49A3
:106F50004F43413E3B393633302D2A2724211E1B17
:106F60001815120F0C09060300FCF9F6F3F0EDEA10
:106F7000E7E4E1DEDBD8D5D2CFCCC9C6C4C1BEBC04
:106F8000B9B6B4B1AFADAAA8A6A4A19F9D9B99988C
:106F9000969493918F8E8D8B8A8988878685848439
:106FA00083828281818181818181818181818282CB
:106FB00083848485868788898A8B8D8E8F9193942C
:106FC0009698999B9D9FA1A4A6A8AAADAFB1B4B66F
:106FD000B9BCBEC1C4C6C9CCCFD2D5D8DBDEE1E4D2
:106FE000E7EAEDF0F3F6F9FC8182838485868788F1
:106FF000898A8B8C8D8E8F90919293949596979889
:10700000999A9B9C9D9E9FA0A1A2A3A4A5A6A7A878
:10701000A9AAABACADAEAFB0B1B2B3B4B5B6B7B868
:10702000B9BABBBCBDBEBFC0C1C2C3C4C5C6C7C858
:10703000C9CACBCCCDCECFD0D1D2D3D4D5D6D7D848
:10704000D9DADBDCDDDEDFE0E1E2E3E4E5E6E7E838
:10705000E9EAEBECEDEEEFF0F1F2F3F4F5F6F7F828
:10706000F9FAFBFCFDFEFF00010203040506070818
:10707000090A0B0C0D0E0F10111213141516171808
:10708000191A1B1C1D1E1F202122232425262728F8
:10709000292A2B2C2D2E2F303132333435363738E8
:1070A000393A3B3C3D3E3F404142434445464748D8
:1070B000494A4B4C4D4E4F505152535455565758C8
:1070C000595A5B5C5D5E5F606162636465666768B8
:1070D000696A6B6C6D6E6F707172737475767778A8
:1070E000797A7B7C7D7E181A1C202224282A2C3059
:1070F0003234383A3D3F4245474A4C4E5253565936
:107100005B5D5E61636567696C6D6F7173747577E4
:1071100078474A4A4B4D4E4E4F5152535353545554
:107120005556565656565656565656565555545307
:10713000535352514F4E4E4D4B4A4A4778777574D0
:1071400073716F6D6C69676563615E5D5B59565302
:10715000524E4C4A4745423F3D3A383432302C2A51
:10716000282422201C1AE4E2DEDCDAD6D4D2CECCEB
:10717000CAC6C4C1BFBCB9B7B4B2B0ACABA8A5A3B2
:10718000A1A09D9B99979592918F8D8B8A898786D7
:10719000B7B4B4B3B1B0B0AFADACABABABAAA9A907
:1071A000A8A8A8A8A8A8A8A8A8A8A8A9A9AAABAB55
:1071B000ABACADAFB0B0B1B3B4B4B78687898A8B8E
:1071C0008D8F91929597999B9DA0A1A3A5A8ABACFB
:1071D000B0B2B4B7B9BCBFC1C4C6CACCCED2D4D683
:1071E000DADCDEE2E4E6030E19232C364049535A7A
:1071F000636A717773706B68625F5A56514E494685
:1072000043403F3D3C3C3C3C3C3C3C3D3C3C3D3DAC
:107210003C3C3A393736312E2B28221F1C191412C8
:107220000F0B09080605050608080B0E1114191C9A
:107230001F23282B2F3436393C3D3D4040404040F1
:10724000403F40403F3F3F4040404345464B4E5308
:10725000565A5F62686B70746E68625A514B42395D
:107260002F261C1106FDF2E8DDD4C9BEB5ACA39AE9
:10727000928A84878A9093989DA1A4AAADB2B5B84A
:10728000BDBEC0C1C3C3C4C3C3C3C3C3C3C3C1C3DF
:10729000C3C3C4C6C7CACED1D5D8DBE0E3E6EBEEA4
:1072A000F1F4F7F8F8FAFAFAF8F5F4F1EEECE8E4AC
:1072B000E0DBD8D5CFCCC9C6C4C1C1C0BEBEC0C03A
:1072C000BEC0C0C0C0C0C0C0BEBEBDBAB7B5B0AD04
:1072D000A9A4A09D9893908A878D939AA3AAB2BBE4
:1072E000C6D1DAE4EFFA81878D93999FA5ABB1B748
:1072F000BDC3C9CFD5DBE1E7EDF3F7FD04080E14FC
:10730000181E22262C3034383E42464A4E505458DD
:107310005A5E6264666A6C6E7072747678787A7C93
:107320007C7E7E7E7E7E7E7E7E7E7E7E7C7C7A788D
:1073300078767472706E6C6A6664625E5A585450E5
:107340004E4A46423E3834302C26221E18140E086F
:1073500004FDF7F3EDE7E1DBD5CFC9C3BDB7B1ABB2
:10736000A59F99938D8781888E949AA0A6ACB2B878
:10737000BEC4CAD0D6DCE2E8EEF4F8FE05090F156B
:10738000191F23272D3135393F43474B4F5155594D
:107390005B5F6365676B6D6F7173757779797B7D03
:1073A0007D7E7E7E7E7E7E7E7E7E7E7E7D7D7B7908
:1073B00079777573716F6D6B6765635F5B59555155
:1073C0004F4B47433F3935312D27231F19150F09DF
:1073D00005FEF8F4EEE8E2DCD6D0CAC4BEB8B2AC22
:1073E000A6A09A948E88F2F6FAFD03070A0D1013F0
:1073F000181E252C353E474F565D626567676665EA
:1074000063615F5C5A5958595B5D6165686B6D6D6E
:107410006B6864605B554F4840372C211509FFF4B9
:10742000EAE1D8D1CCC9CACED5DFE9F3FD050C110C
:1074300014161614110E0B0908090B0E1114171946
:107440001A1A191714110D0907050506080B0E1055
:107450001315171A1D20222323211E1B19191A1E6A
:10746000252E39444F5A63696B69635A4D3E2F216B
:10747000160D060303050A10161B20242625221DBF
:10748000180F05FAEDDFD2C5B9AFA8A4A3A5AAB11C
:10749000BAC5D0DAE2E7EAEAE7E1DAD2C9C0B6ADC6
:1074A000A59E9A999A9FA5ADB5BEC6CDD1D4D5D586
:1074B000D3D0CDCCCDD0D4D9DEE4E9EDF1F4F7FAD8
:1074C000FDFEFDFAF6F0E9E1D8CFC5BCB3ACA5A04E
:1074D0009B9894918E8C8B8C8E9298A0A9B3BDC7EB
:1074E000D1DAE2E6EAEE0A2240575C564E42321CFE
:1074F00001F2F604141A1E22282C30343E50606229
:107500005A524E4A46403A38383424120600F6E4BD
:10751000D0C0BABEC0BABEC0BAB0A8A4A2A4ACB80B
:10752000C2C4BEB2AAAAAAA49C9BA6C0E0FA020248
:10753000FEF6F0EEEEEBE0D2C4C0C6D2DEE0E0E450
:10754000F00418201A06F0DCD2CCC6C2C0C8DAF4A7
:107550000A1A1C0EFAE4D6D8DCDCD6CFCACCD2D0BC
:10756000CAC6C7CAD0D6DEE6F0F6FA000E222B282D
:10757000201A181A1C160E0600FAF4F4F9FE00FE82
:10758000F4ECEEF4F2ECE6E4E4E8F2FC0A24383E33
:107590003F403E36260CF0DAD4D4D8DEE6F0FC06C6
:1075A0001624303A3A2E2420201E1809F8ECECF26A
:1075B000FF0A182630383C4040403E3C40464B4C89
:1075C00044321E120A03FCEEDED6D4D4DADCDADA58
:1075D000E0EC002246667472685E50423222181651
:1075E0001C222A34383838363206FEFDFEF4EEEC22
:1075F000F0E6E6E6ECDEE0E0E4D6DAD8D8CCD0D2AD
:10760000D0CCCED4CECED0D6CED0D2D8CCD0D4D66C
:10761000D0D6DCDEDAE0E8E4E2E8F0E8ECF0F6EE22
:10762000F4F8FEF800040602070E0C0A0D100C1206
:107630001012080A0808FAFEFE03EE001828303E71
:107640004C4C4A494A3E38373A353A4450505A63CE
:107650006A60615E5A4A4848423E424A464A4C5431
:1076600046443C3C26221A180A0E10100A0C0E043E
:10767000FEF8F6E4DCD4D4C6C6C8CCC2C6C8C6BAC6
:10768000BAB6AEA2A1A29A989CA49EA3A6AEA2A6A8
:10769000A4A79A9EA0A29EA6B0B2B4BCC6C1C4C8FC
:1076A000CEC6CACED6D1DBE4EDEBF6FE0000060E68
:1076B0000A080E1610151C28242A303830363A3C99
:1076C00034383E3C383E444042464E444644483AB4
:1076D0003C3E40363A3C3A323438302A2A2C1E1A84
:1076E000181C0E1010140608060008131E222E3C4B
:1076F000464A5664666C727A7476747464625C543A
:1077000046423E32261E1A0800FAF8E6E4DFDCD0D4
:10771000D2D4D2D0D4DAD4D4D6DAD2D6D8DAD0D21F
:10772000D4D0CACACCC1BEB8B8A8A6A2A29698980E
:10773000948E929894989EA8A4ACB4BEC0CCD8E184
:10774000E6F2000209141E1E262C322E34383A3678
:107750003A3E3936363A30303032282A2A2A232720
:107760002C2A282C322C2C30362E3235362E303224
:107770002E2A2A2C221E181808060200F2F0ECE429
:10778000DAD8D8CECACACCC0C0C2C4BCC2C6C8C46B
:10779000CAD2CFD2D8E0DCE2E5EAE4EAF0F0EEF2D9
:1077A000F6F2F2F4FAF3F6F8FCF4F8FAFCF8FE025A
:1077B0000002070E0C10181C1C222A2A2A2E363210
:1077C00034373C3438393A323334302828291E1CB7
:1077D00016120A0E0602FEFEFCF2E6E2E0D4D0CE5D
:1077E000D4CCD2DAE2E4EEFA00FEFAF6F6EAEBEAFC
:1077F000EAE6E8ECEAE8ECF2F0F4FA000006101829
:107800001A2530363A424C4C52585E5B5E62645EDA
:1078100060625C565452463E3632201A1008F8F226
:10782000EAE0D2CAC6B8B0A8A69895909086888893
:1078300088848A8E8E90969E9EA4ACB4B6BEC8CE26
:10784000D0DAE2E6EBF4FCFC00040A060A1012109F
:1078500014161512141812131416101214141014EE
:10786000181614181E1A1C202624282C302C3036EA
:1078700037363A3E3A3A3A3E383838382E2E2C28A7
:10788000201E1E140E0A08FEFAF4F2E6E4E0DCD232
:10789000D0D0C9C4C4C6BEBEBEC0BABEC2C3C0C6B4
:1078A000CACCCCD2DADADEE4EAEAF0F8F8FA00047C
:1078B00002060A100D12141812161A1816181C16A1
:1078C00016171A1416181A14161816121618141455
:1078D000161A1417181C161A1C1C1818161416162B
:1078E0001410141412080603000008142028324053
:1078F0004A545E6A70767C78766C64645A5042367C
:107900002A1C0E00F4E2D6C8BCAEA49E9492908FBE
:107910008E96989CA3AAAEB6BEC4CCD6E0E4ECF496
:10792000F8FC000404060A0A0A0E121214181A1AA5
:107930001E2222262A2C2D3236383A3E403E404026
:107940003C3A36342A2620160E0800F6EFE6DED240
:10795000CCC6BCB8B4B0ACACAEAEB0B4BABCC3CAA2
:10796000D0D6E0E8EFF800060C141A1E22282A2CC4
:107970002E302E30302E2C2C2B262424221C1C1A88
:10798000161614141010100C0A0A0A05040200FE40
:10799000FCFAF4F2F0ECE7E4E2DCDAD8D6D2D2D4A6
:1079A000D0D2D4D6D6DADEE0E4EAF0F4FA00040865
:1079B0000F16181D2226282A2E2C2E302E2C2A2A6D
:1079C0002622201E1614120C08060400FEFCF8F6EF
:1079D000F4F2EEF0ECE8E6E4E2DAD6D3CECACACCB2
:1079E000CCD2DAE2E8F4FE000000020000FAF6F37E
:1079F000F2F0F8FE08142532404D5960676B6B6950
:107A000067655D554B4130200EFAE6D2C3B1A79EA3
:107A100099979B9FA4ABB5BCC2CAD2D9E0EAF2F851
:107A2000FE02040607060404020202060C101821D6
:107A3000282E353B3D3F41403D3A362E2720140845
:107A4000FEF2E1D6CAC0B7B3B0AFB1B5BBC0C9D1C1
:107A5000D8E0EAF2F800080D12181C1C1E1E1C1AB1
:107A6000181814141616171A1D1E2023222221215D
:107A70001D1A18140D0802FAF4ECE4DAD4CFC8C5C4
:107A8000C5C6C6CBD0D5DAE3EAF1F800060B12186A
:107A90001C2024242423231E1D1B18141212100E34
:107AA0000E0F0C0E0E0C0A0A0906040200FCF9F671
:107AB000F0ECE8E4E0DDDCD8D8D9DBDCE1E6EAF0A4
:107AC000F6FC00060C10151A1E1E20232220201E74
:107AD0001A18100C0A0804040200000000FEFCFC46
:107AE000FCFAFAFA0A0C040E12140800EEE2CEC6F2
:107AF000C0C1C4D1DEEDFA060E12100E04FEF4EE83
:107B0000E6E6E9EEF4000A141C24282726221A14BB
:107B10000C0800000002060E161A202424221D184C
:107B20000C02FCF4ECEAECEEF2FA00040A0C0A0493
:107B3000FEF8ECE3DCDAE1E8F0FA0004060602FE07
:107B4000F8F2EAE8E8EAEEF600060C14181818163F
:107B5000100A0602FEFE0002060C12161A1C1B1862
:107B6000140C00F6E8DCCDC8C8D2E0FA1430485B4B
:107B7000635B4D3416F7DECCC6CCE4002446697650
:107B80007B76623A18F0D3B8B3B5C8E0041E3A4623
:107B90004E3E2C0CF2CAB49F9997A7B8D0E4FC06CD
:107BA0000C0804F6E6D4C8B9B4B4B9C0CEDEECF81B
:107BB000040D121416120C0600F8F4F2F2F3FC068F
:107BC000121E2F3A404343382D1C10FEF5EEEEF204
:107BD000000C1A283438342C1E0AF8E4D6C9C7CB56
:107BE000D4E0F1000802FDF6F4F800080C0E05FEE2
:107BF000F6F3F4F8FE00080802FE000A080400F597
:107C0000F0EEF2F800FE000616202210FAD3CEDCC9
:107C1000F60C1C1816181A1404ECD4C6D4FC3054F4
:107C20005436FACCB6CAED1E383C1F0A000000FCE0
:107C3000E0DCEA0C3A58531CE0B6BEDF041E2C1EF2
:107C4000161220241CEECAB2CE003B5E5824E8C4B3
:107C5000CCE9020D0400162A342C04D7B4BADC1483
:107C600036422E12F5EEEDF0EAE5E4FA102E33245A
:107C700001E4D6E2FC121E1A0C02000000FCF4F132
:107C8000FC0E252E260DF8E4FEF2020C141212133F
:107C9000151008FAF0ECFA081A1C1606FAF5F900A5
:107CA000040606080A0E0C04FAF0ECF2FE0C14139B
:107CB0000A02FBF8F8F8F8FAFC02080C0800F8F2DF
:107CC000F2F8010600F8F6020E0F00F6F0ECF2FAF8
:107CD00002060A0A0704080804ECDEE0EC00122899
:107CE0002E2107F4A6F818735AFFFC1AB4BAE54817
:107CF000D8031A5E40E752639BC7DED0019301CFE1
:107D0000C3A87593F30BB8B06F95AA918F3C2AF472
:107D10003A1EA9928C6DD24CC25C669B2B46D279DE
:107D2000C2170CA826ACED6BC04BF1AD98E191A841
:107D3000C5FFB3EEFF08648F27DA499D5A65F85DE9
:107D4000E91ABED73FFBF5161BD7E46014EEE3A299
:107D50005F8BAA424EC307D36D7AF8A5C96042B2C1
:107D600032631E0A22F08B14757853D4B38071925B
:107D70001739C1130EFD3A39DB8D26B1147C021F71
:107D8000BE33035F95D4F33EE78BD75F84038F1E2A
:107D90009F99F199B7EA83D2D8F14EF8BFD10CC7B9
:107DA000CD6206A8C4C5745FABF8CA93FABD94DE71
:107DB00048CAF7BDA712E8A4F3A02C60B0CDBBBCA5
:107DC00048DC86E8BE345AB922414CB1F0425CE04E
:107DD0000F0351211FD278A9DE22C309B12F6B03F3
:107DE000B91FA45B000000000000000000000000BC
:107DF00000000000000000000000000000007F8282
:107E000085888B8E9194979A9DA0A3A6A9ACAFB2BA
:107E1000B5B8BABDC0C2C5C8CACDCFD1D4D6D8DADC
:107E2000DDDFE1E3E5E6E8EAEBEDEFF0F1F3F4F5B1
:107E3000F6F7F8F9FAFAFBFCFCFDFDFDFDFDFDFD92
:107E4000FDFDFDFDFCFCFBFAFAF9F8F7F6F5F4F39D
:107E5000F1F0EFEDEBEAE8E6E5E3E1DFDDDAD8D6D5
:107E6000D4D1CFCDCAC8CEC2C0BDBAB8B5B2AFACFE
:107E7000A9A6A3A09D9A9794918E8B8885827F7BDB
:107E80007875726F6C696663605D5A5754514E4BDA
:107E9000484543403D3B383533302E2C2927252398
:107EA000201E1C1A1817151312100E0D0C0A0908A3
:107EB00007060504030302010100000000000000A2
:107EC0000000000001010203030405060708090A77
:107ED0000C0D0E1012131517181A1C1E202325271F
:107EE000292C2E303335383B3D404345484B4E51CD
:107EF00054575A5D606366696C6F7275787B0001D8
:107F000002030405060708090A0B0C0D0E0F1011D9
:107F100012131415161718191A1B1C1D1E1F2021C9
:107F200022232425262728292A2B2C2D2E2F3031B9
:107F300032333435363738393A3B3C3D3E3F4041A9
:107F400042434445464748494A4B4C4D4E4F505199
:107F500052535455565758595A5B5C5D5E5F606189
:107F600062636465666768696A6B6C6D6E6F707179
:107F700072737475767778797A7B7C7D7E7F808169
:107F800082838485868788898A8B8C8D8E8F909159
:107F900092939495969798999A9B9C9D9E9FA0A149
:107FA000A2A3A4A5A6A7A8A9AAABACADAEAFB0B139
:107FB000B2B3B4B5B6B7B8B9BABBBCBDBEBFC0C129
:107FC000C2C3C4C5C6C7C8C9CACBCCCDCECFD0D119
:107FD000D2D3D4D5D6D7D8D9DADBDCDDDEDFE0E109
:107FE000E2E3E4E5E6E7E8E9EAEBECEDEEEFF0F1F9
:107FF000F2F3F4F5F6F7F8F9FAFBFCFDFEFF0000EA
:0200000400F00A
:10000000FFFFFFFFFFFFFFFFFFFFFFFFFFFFFFFF00
:10001000FFFFFFFFFFFFFFFFFFFFFFFFFFFFFFFFF0
:10002000FFFFFFFFFFFFFFFFFFFFFFFFFFFFFFFFE0
:10003000FFFFFFFFFFFFFFFFFFFFFFFFFFFFFFFFD0
:10004000FFFFFFFFFFFFFFFFFFFFFFFFFFFFFFFFC0
:10005000FFFFFFFFFFFFFFFFFFFFFFFFFFFFFFFFB0
:10006000FFFFFFFFFFFFFFFFFFFFFFFFFFFFFFFFA0
:10007000FFFFFFFFFFFFFFFFFFFFFFFFFFFFFFFF90
:10008000FFFFFFFFFFFFFFFFFFFFFFFFFFFFFFFF80
:10009000FFFFFFFFFFFFFFFFFFFFFFFFFFFFFFFF70
:1000A000FFFFFFFFFFFFFFFFFFFFFFFFFFFFFFFF60
:1000B000FFFFFFFFFFFFFFFFFFFFFFFFFFFFFFFF50
:1000C000FFFFFFFFFFFFFFFFFFFFFFFFFFFFFFFF40
:1000D000FFFFFFFFFFFFFFFFFFFFFFFFFFFFFFFF30
:1000E000FFFFFFFFFFFFFFFFFFFFFFFFFFFFFFFF20
:1000F000FFFFFFFFFFFFFFFFFFFFFFFFFFFFFFFF10
:020000040030CA
:0E000000240E191E000181000FC00FE00F40FA
:020000040020DA
:08000000FFFFFFFFFFFFFFFF00
:00000001FF
