:0400000007EF00F016
:10000800018209ED00F0D0EF04F00600F3CF36F0DE
:10001800F4CF37F0F6CF38F0F7CF39F0F8CF3AF021
:10002800F5CF3BF024C081FFFF0E416E7D0E426E7E
:10003800FF0E456E630E466EFF0E436E630E446EF2
:100048007F0E02143C6E3D6A02C032F003C033F0EA
:1000580004C034F005C035F0080E38EF00F0D89031
:100068003532343233323232E82E33EF00F0325048
:10007800070B536E3CC032F03DC033F0D890323697
:100088003336D89032363336FF0E3224F66E610E90
:100098003320F76E0900F5CF4BF00900F5CF4CF08F
:1000A8000900F5CF4DF00A00F5CF4EF05350D8A413
:1000B80060EF00F062EF00F06BEF00F04B500001D2
:1000C8006C274C506D234D506E234E506F235304B4
:1000D800D8A471EF00F073EF00F085EF00F0D8902E
:1000E8004B34326E4C34336E4D34346E4E34356E80
:1000F800325000016C2733506D2334506E23355035
:100108006F23020E5318D8A48CEF00F08EEF00F086
:10011800A8EF00F04BC032F04CC033F04DC034F0C3
:100128004EC035F0020ED890323633363436353676
:10013800E82E97EF00F0325000016C2733506D2302
:1001480034506E2335506F23030E5318D8A4AFEFE5
:1001580000F0B1EF00F0CBEF00F04BC032F04CC034
:1001680033F04DC034F04EC035F0030ED89032361F
:10017800333634363536E82EBAEF00F03250000107
:100188006C2733506D2334506E2335506F23040E83
:100198005318D8A4D2EF00F0D4EF00F0EEEF00F03F
:1001A8004BC032F04CC033F04DC034F04EC035F087
:1001B800040ED8903236333634363536E82EDDEF35
:1001C80000F0325000016C2733506D2334506E23F9
:1001D80035506F23050E5318D8A4F5EF00F0F7EF4C
:1001E80000F011EF01F04BC032F04CC033F04DC0BD
:1001F80034F04EC035F0050ED890323633363436EA
:100208003536E82E00EF01F0325000016C273350EC
:100218006D2334506E2335506F23060E5318D8A41F
:1002280018EF01F01AEF01F034EF01F04BC032F093
:100238004CC033F04DC034F04EC035F0060ED890A7
:100248003236333634363536E82E23EF01F0325065
:1002580000016C2733506D2334506E2335506F23C3
:10026800070E5318D8A43BEF01F03DEF01F057EF0C
:1002780001F04BC032F04CC033F04DC034F04EC0EA
:1002880035F0070ED8903236333634363536E82E08
:1002980046EF01F0325000016C2733506D23345083
:1002A8006E2335506F236CC032F06DC033F06EC0D2
:1002B80034F06FC035F0100E67EF01F0D89035328A
:1002C800343233323232E82E62EF01F0FF0E32144C
:1002D800476E030E3314486E000E3414496E000E38
:1002E80035144A6E47504326000E44221E504326BA
:1002F8001F50442243C0F6FF44C0F7FF0800F550E2
:100308007F0F256E28502502F350256EF4500A6E93
:100318000B6A0C6A0D6A810E0A26FF0E0B22FF0E6D
:100328000C22FF0E0D220CC00DF00BC00CF00AC001
:100338000BF00A6A18C032F019C033F0070E346E99
:10034800D89033323232342EA4EF01F03250070BFA
:10035800546E18507F0B406E5450AAEC04F0405075
:10036800040DFF0EF324F66E610EF420F76E0900FB
:10037800F5CF4FF00900F5CF50F00900F5CF51F057
:100388000A00F5CF52F05450D8A4CDEF01F0CFEFCA
:1003980001F0D7EF01F04F50062650500722515078
:1003A8000822525009225404D8A4DDEF01F0DFEFEF
:1003B80001F0F0EF01F0D8904F34326E5034336EC4
:1003C8005134346E5234356E32500626335007227B
:1003D8003450082235500922020E5418D8A4F7EFD9
:1003E80001F0F9EF01F012EF02F04FC032F050C007
:1003F80033F051C034F052C035F0020ED890323686
:10040800333634363536E82E02EF02F032500626FF
:10041800335007223450082235500922030E54184D
:10042800D8A419EF02F01BEF02F034EF02F04FC02E
:1004380032F050C033F051C034F052C035F0030EE2
:10044800D8903236333634363536E82E24EF02F07B
:1004580032500626335007223450082235500922DC
:10046800040E5418D8A43BEF02F03DEF02F056EF0B
:1004780002F04FC032F050C033F051C034F052C0D7
:1004880035F0040ED8903236333634363536E82E09
:1004980046EF02F032500626335007223450082225
:1004A80035500922050E5418D8A45DEF02F05FEF0D
:1004B80002F078EF02F04FC032F050C033F051C074
:1004C80034F052C035F0050ED89032363336343613
:1004D8003536E82E68EF02F03250062633500722F0
:1004E8003450082235500922060E5418D8A47FEF3C
:1004F80002F081EF02F09AEF02F04FC032F050C0E4
:1005080033F051C034F052C035F0060ED890323670
:10051800333634363536E82E8AEF02F03250062666
:10052800335007223450082235500922070E541838
:10053800D8A4A1EF02F0A3EF02F0BCEF02F04FC085
:1005480032F050C033F051C034F052C035F0070ECD
:10055800D8903236333634363536E82EACEF02F0E2
:1005680032500626335007223450082235500922CB
:100578000A5006260B5007220C5008220D5009225B
:1005880006C032F007C033F008C034F009C035F0B7
:100598000C0ED4EF02F0D890353234323332323286
:1005A800E82ECFEF02F03250476E486A496A4A6A2D
:1005B8002050D8A4E2EF02F0E4EF02F0F4EF02F0EA
:1005C80047504526000E462216501424326E175006
:1005D8001520336E32504526335046221CEF03F067
:1005E80047504126000E422255504126565042227D
:1005F80041C0F6FF42C0F7FF0800F5CF2DF02DC02F
:100608003EF03F6A2E502D02F3502D6EF450476E87
:10061800486A496A4A6AD8904736483649364A3657
:1006280047503E2648503F223E5045263F504622DE
:100638002150D8B422EF03F024EF03F028EF03F0A1
:100648000A5014260B5015227F0E256E7F0E266E3B
:1006580045C0F6FF46C0F7FF0800F5502526010EF5
:10066800462645C0F6FF46C0F7FF0800F550262687
:1006780029507F082502F350256EF4CF25F0295024
:100688002602F350266EF4CF26F02650252625C0E4
:1006980024F0500ED66EF2943BC0F5FF3AC0F8FF36
:1006A80039C0F7FF38C0F6FF37C0F4FF36C0F3FF94
:1006B80001921100946A936A92689568030E966E87
:1006C800010EC26E080EC16EAB0EC06EC08ED80E83
:1006D800D56E9F8C9D9CF28CF28AF28EF296829453
:1006E800010EC26EC08EC2825B6A000E5A6EC2B222
:1006F80080EF03F082EF03F07BEF03F0C4500001BA
:10070800706FC350186E70C019F0050EC26EC08E9F
:10071800C2825B6A000E5A6EC2B295EF03F097EF81
:1007280003F090EF03F0C4505A26000E5B225A5093
:100738005B6E5A6AC3505A26000E5B225850D8A4E2
:10074800A8EF03F0AAEF03F0ADEF03F01B6A000E69
:100758001A6E1A505A261B505B22800E5A14126EBB
:10076800030E5B14136ED8901236133612C014F0B1
:1007780013C015F05A507F0B296E0D0EC26EC09E25
:10078800C2822F6AC2B2CBEF03F0CDEF03F0C6EFFF
:1007980003F0C4502F262FC02EF0110EC26EC08E4B
:1007A800C2825B6A000E5A6EC2B2DDEF03F0DFEF61
:1007B80003F0D8EF03F0C4505A26000E5B225A50BB
:1007C8005B6E5A6AC3505A26000E5B225AC002F06A
:1007D8005BC003F0046A056A150EC26EC09EC28231
:1007E8002F6AC2B2FAEF03F0FCEF03F0F5EF03F063
:1007F800C4CF2FF02FC028F028C027F083B007EF10
:1008080004F009EF04F026EF04F00E500F10D8A4FE
:1008180010EF04F012EF04F026EF04F082840F0EBC
:100828000F6EA00E0E6E010E1F261E04080E1F5816
:10083800D8A021EF04F023EF04F026EF04F01F6A9C
:10084800000E1E6E83B22BEF04F02DEF04F04FEF75
:1008580004F00E500F10D8A434EF04F036EF04F073
:100868004FEF04F082840F0E0F6EA00E0E6E582A02
:10087800040E5818D8A443EF04F045EF04F047EFEE
:1008880004F0010E586E5850010B576E020E5816A0
:10089800D8905830216E83B454EF04F056EF04F02A
:1008A80074EF04F00E500F10D8A45DEF04F05FEF62
:1008B80004F074EF04F082840F0E0F6EA00E0E6E1B
:1008C800090E17261B0E175CD8A06DEF04F06FEF0A
:1008D80004F074EF04F0176A000E166E010E201A69
:1008E80083B879EF04F07BEF04F09AEF04F00E5030
:1008F8000F10D8A482EF04F084EF04F09AEF04F00C
:100908000F0E0F6EA00E0E6E56045510D8A48FEF62
:1009180004F091EF04F096EF04F0566A000E556E5D
:100928009AEF04F0010E566E000E556E0E500F1021
:10093800D8B4A1EF04F0A3EF04F074EF03F00E06AF
:10094800D8A00F0674EF03F007EF00F0316E31C046
:1009580030F0010E301682503018FE0B3018826EBF
:1009680031C030F0D8903032010E30163046825007
:100978003018FD0B3018826E31C030F0D89030320C
:10098800D8903032010E301630463046825030183A
:10099800FB0B3018826E1200E60EF66E090EF76E2B
:1009A800000EF86E00EE55F010EE05F00900F5CFD8
:1009B800EEFFE550E150FAE100EE60F0100EEE6A4D
:1009C800E806FDE100EE02F02E0EEE6AE806FDE113
:1009D80001900192000EF86E00015EEF03F0000135
:0309E80001010109
:1051FE000001000000020000000300000004000097
:10520E000005000000060000000700000008000076
:10521E0000090000000A0000000B0000000C000056
:10522E00000D0000000E0000000F00000010000036
:10523E000011000000120000001300000014000016
:10524E0000150000001600000017000000180000F6
:10525E0000190000001A0000001B0000001C0000D6
:10526E00001D0000001E0000001F000000200000B6
:10527E000021000000220000002300000024000096
:10528E000025000000260000002700000028000076
:10529E0000290000002A0000002B0000002C000056
:1052AE00002D0000002E0000002F00000030000036
:1052BE000031000000320000003300000034000016
:1052CE0000350000003600000037000000380000F6
:1052DE0000390000003A0000003B0000003C0000D6
:1052EE00003D0000003E0000003F000000400000B6
:1052FE000041000000420000004300000044000096
:10530E000045000000460000004700000048000075
:10531E0000490000004A0000004B0000004C000055
:10532E00004D0000004E0000004F00000050000035
:10533E000051000000520000005300000054000015
:10534E0000550000005600000057000000580000F5
:10535E0000590000005A0000005B0000005C0000D5
:10536E00005D0000005E0000005F000000600000B5
:10537E000061000000620000006300000064000095
:10538E000065000000660000006700000068000075
:10539E0000690000006A0000006B0000006C000055
:1053AE00006D0000006E0000006F00000070000035
:1053BE000071000000720000007300000074000015
:1053CE0000750000007600000077000000780000F5
:1053DE0000790000007A0000007B0000007C0000D5
:1053EE00007D0000007E0000007F000000800000B5
:1053FE000081000000820000008300000084000095
:10540E000085000000860000008700000088000074
:10541E0000890000008A0000008B0000008C000054
:10542E00008D0000008E0000008F00000090000034
:10543E000091000000920000009300000094000014
:10544E0000950000009600000097000000980000F4
:10545E0000990000009A0000009B0000009C0000D4
:10546E00009D0000009E0000009F000000A00000B4
:10547E0000A1000000A2000000A3000000A4000094
:10548E0000A5000000A6000000A7000000A8000074
:10549E0000A9000000AA000000AB000000AC000054
:1054AE0000AD000000AE000000AF000000B0000034
:1054BE0000B1000000B2000000B3000000B4000014
:1054CE0000B5000000B6000000B7000000B80000F4
:1054DE0000B9000000BA000000BB000000BC0000D4
:1054EE0000BD000000BE000000BF000000C00000B4
:1054FE0000C1000000C2000000C3000000C4000094
:10550E0000C5000000C6000000C7000000C8000073
:10551E0000C9000000CA000000CB000000CC000053
:10552E0000CD000000CE000000CF000000D0000033
:10553E0000D1000000D2000000D3000000D4000013
:10554E0000D5000000D6000000D7000000D80000F3
:10555E0000D9000000DA000000DB000000DC0000D3
:10556E0000DD000000DE000000DF000000E00000B3
:10557E0000E1000000E2000000E3000000E4000093
:10558E0000E5000000E6000000E7000000E8000073
:10559E0000E9000000EA000000EB000000EC000053
:1055AE0000ED000000EE000000EF000000F0000033
:1055BE0000F1000000F2000000F3000000F4000013
:1055CE0000F5000000F6000000F7000000F80000F3
:1055DE0000F9000000FA000000FB000000FC0000D3
:1055EE0000FD000000FE000000FF000000000100B2
:1055FE00000101000002010000030100000401008F
:10560E00000501000006010000070100000801006E
:10561E0000090100000A0100000B0100000C01004E
:10562E00000D0100000E0100000F0100001001002E
:10563E00001101000012010000130100001401000E
:10564E0000150100001601000017010000180100EE
:10565E0000190100001A0100001B0100001C0100CE
:10566E00001D0100001E0100001F010000200100AE
:10567E00002101000022010000230100002401008E
:10568E00002501000026010000270100002801006E
:10569E0000290100002A0100002B0100002C01004E
:1056AE00002D0100002E0100002F0100003001002E
:1056BE00003101000032010000330100003401000E
:1056CE0000350100003601000037010000380100EE
:1056DE0000390100003A0100003B0100003C0100CE
:1056EE00003D0100003E0100003F010000400100AE
:1056FE00004101000042010000430100004401008E
:10570E00004501000046010000470100004801006D
:10571E0000490100004A0100004B0100004C01004D
:10572E00004D0100004E0100004F0100005001002D
:10573E00005101000052010000530100005401000D
:10574E0000550100005601000057010000580100ED
:10575E0000590100005A0100005B0100005C0100CD
:10576E00005D0100005E0100005F010000600100AD
:10577E00006101000062010000630100006401008D
:10578E00006501000066010000670100006801006D
:10579E0000690100006A0100006B0100006C01004D
:1057AE00006D0100006E0100006F0100007001002D
:1057BE00007101000072010000730100007401000D
:1057CE0000750100007601000077010000780100ED
:1057DE0000790100007A0100007B0100007C0100CD
:1057EE00007D0100007E0100007F010000800100AD
:1057FE00008101000082010000830100008401008D
:10580E00008501000086010000870100008801006C
:10581E0000890100008A0100008B0100008C01004C
:10582E00008D0100008E0100008F0100009001002C
:10583E00009101000092010000930100009401000C
:10584E0000950100009601000097010000980100EC
:10585E0000990100009A0100009B0100009C0100CC
:10586E00009D0100009E0100009F010000A00100AC
:10587E0000A1010000A2010000A3010000A401008C
:10588E0000A5010000A6010000A7010000A801006C
:10589E0000A9010000AA010000AB010000AC01004C
:1058AE0000AD010000AE010000AF010000B001002C
:1058BE0000B1010000B2010000B3010000B401000C
:1058CE0000B5010000B6010000B7010000B80100EC
:1058DE0000B9010000BA010000BB010000BC0100CC
:1058EE0000BD010000BE010000BF010000C00100AC
:1058FE0000C1010000C2010000C3010000C401008C
:10590E0000C5010000C6010000C7010000C801006B
:10591E0000C9010000CA010000CB010000CC01004B
:10592E0000CD010000CE010000CF010000D001002B
:10593E0000D1010000D2010000D3010000D401000B
:10594E0000D5010000D6010000D7010000D80100EB
:10595E0000D9010000DA010000DB010000DC0100CB
:10596E0000DD010000DE010000DF010000E00100AB
:10597E0000E1010000E2010000E3010000E401008B
:10598E0000E5010000E6010000E7010000E801006B
:10599E0000E9010000EA010000EB010000EC01004B
:1059AE0000ED010000EE010000EF010000F001002B
:1059BE0000F1010000F2010000F3010000F401000B
:1059CE0000F5010000F6010000F7010000F80100EB
:1059DE0000F9010000FA010000FB010000FC0100CB
:1059EE0000FD010000FE010000FF010000000200AA
:1059FE000001020000020200000302000004020087
:105A0E000005020000060200000702000008020066
:105A1E0000090200000A0200000B0200000C020046
:105A2E00000D0200000E0200000F02000010020026
:105A3E000011020000120200001302000014020006
:105A4E0000150200001602000017020000180200E6
:105A5E0000190200001A0200001B0200001C0200C6
:105A6E00001D0200001E0200001F020000200200A6
:105A7E000021020000220200002302000024020086
:105A8E000025020000260200002702000028020066
:105A9E0000290200002A0200002B0200002C020046
:105AAE00002D0200002E0200002F02000030020026
:105ABE000031020000320200003302000034020006
:105ACE0000350200003602000037020000380200E6
:105ADE0000390200003A0200003B0200003C0200C6
:105AEE00003D0200003E0200003F020000400200A6
:105AFE000041020000420200004302000044020086
:105B0E000045020000460200004702000048020065
:105B1E0000490200004A0200004B0200004C020045
:105B2E00004D0200004E0200004F02000050020025
:105B3E000051020000520200005302000054020005
:105B4E0000550200005602000057020000580200E5
:105B5E0000590200005A0200005B0200005C0200C5
:105B6E00005D0200005E0200005F020000600200A5
:105B7E000061020000620200006302000064020085
:105B8E000065020000660200006702000068020065
:105B9E0000690200006A0200006B0200006C020045
:105BAE00006D0200006E0200006F02000070020025
:105BBE000071020000720200007302000074020005
:105BCE0000750200007602000077020000780200E5
:105BDE0000790200007A0200007B0200007C0200C5
:105BEE00007D0200007E0200007F020000800200A5
:105BFE000081020000820200008302000084020085
:105C0E000085020000860200008702000088020064
:105C1E0000890200008A0200008B0200008C020044
:105C2E00008D0200008E0200008F02000090020024
:105C3E000091020000920200009302000094020004
:105C4E0000950200009602000097020000980200E4
:105C5E0000990200009A0200009B0200009C0200C4
:105C6E00009D0200009E0200009F020000A00200A4
:105C7E0000A1020000A2020000A3020000A4020084
:105C8E0000A5020000A6020000A7020000A8020064
:105C9E0000A9020000AA020000AB020000AC020044
:105CAE0000AD020000AE020000AF020000B0020024
:105CBE0000B1020000B2020000B3020000B4020004
:105CCE0000B5020000B6020000B7020000B80200E4
:105CDE0000B9020000BA020000BB020000BC0200C4
:105CEE0000BD020000BE020000BF020000C00200A4
:105CFE0000C1020000C2020000C3020000C4020084
:105D0E0000C5020000C6020000C7020000C8020063
:105D1E0000C9020000CA020000CB020000CC020043
:105D2E0000CD020000CE020000CF020000D0020023
:105D3E0000D1020000D2020000D3020000D4020003
:105D4E0000D5020000D6020000D7020000D80200E3
:105D5E0000D9020000DA020000DB020000DC0200C3
:105D6E0000DD020000DE020000DF020000E00200A3
:105D7E0000E1020000E2020000E3020000E4020083
:105D8E0000E5020000E6020000E7020000E8020063
:105D9E0000E9020000EA020000EB020000EC020043
:105DAE0000ED020000EE020000EF020000F0020023
:105DBE0000F1020000F2020000F3020000F4020003
:105DCE0000F5020000F6020000F7020000F80200E3
:105DDE0000F9020000FA020000FB020000FC0200C3
:105DEE0000FD020000FE020000FF020000000300A2
:105DFE00000103000002030000030300000403007F
:105E0E00000503000006030000070300000803005E
:105E1E0000090300000A0300000B0300000C03003E
:105E2E00000D0300000E0300000F0300001003001E
:105E3E0000110300001203000013030000140300FE
:105E4E0000150300001603000017030000180300DE
:105E5E0000190300001A0300001B0300001C0300BE
:105E6E00001D0300001E0300001F0300002003009E
:105E7E00002103000022030000230300002403007E
:105E8E00002503000026030000270300002803005E
:105E9E0000290300002A0300002B0300002C03003E
:105EAE00002D0300002E0300002F0300003003001E
:105EBE0000310300003203000033030000340300FE
:105ECE0000350300003603000037030000380300DE
:105EDE0000390300003A0300003B0300003C0300BE
:105EEE00003D0300003E0300003F0300004003009E
:105EFE00004103000042030000430300004403007E
:105F0E00004503000046030000470300004803005D
:105F1E0000490300004A0300004B0300004C03003D
:105F2E00004D0300004E0300004F0300005003001D
:105F3E0000510300005203000053030000540300FD
:105F4E0000550300005603000057030000580300DD
:105F5E0000590300005A0300005B0300005C0300BD
:105F6E00005D0300005E0300005F0300006003009D
:105F7E00006103000062030000630300006403007D
:105F8E00006503000066030000670300006803005D
:105F9E0000690300006A0300006B0300006C03003D
:105FAE00006D0300006E0300006F0300007003001D
:105FBE0000710300007203000073030000740300FD
:105FCE0000750300007603000077030000780300DD
:105FDE0000790300007A0300007B0300007C0300BD
:105FEE00007D0300007E0300007F0300008003009D
:105FFE00008103000082030000830300008403007D
:10600E00008503000086030000870300008803005C
:10601E0000890300008A0300008B0300008C03003C
:10602E00008D0300008E0300008F0300009003001C
:10603E0000910300009203000093030000940300FC
:10604E0000950300009603000097030000980300DC
:10605E0000990300009A0300009B0300009C0300BC
:10606E00009D0300009E0300009F030000A003009C
:10607E0000A1030000A2030000A3030000A403007C
:10608E0000A5030000A6030000A7030000A803005C
:10609E0000A9030000AA030000AB030000AC03003C
:1060AE0000AD030000AE030000AF030000B003001C
:1060BE0000B1030000B2030000B3030000B40300FC
:1060CE0000B5030000B6030000B7030000B80300DC
:1060DE0000B9030000BA030000BB030000BC0300BC
:1060EE0000BD030000BE030000BF030000C003009C
:1060FE0000C1030000C2030000C3030000C403007C
:10610E0000C5030000C6030000C7030000C803005B
:10611E0000C9030000CA030000CB030000CC03003B
:10612E0000CD030000CE030000CF030000D003001B
:10613E0000D1030000D2030000D3030000D40300FB
:10614E0000D5030000D6030000D7030000D80300DB
:10615E0000D9030000DA030000DB030000DC0300BB
:10616E0000DD030000DE030000DF030000E003009B
:10617E0000E1030000E2030000E3030000E403007B
:10618E0000E5030000E6030000E7030000E803005B
:10619E0000E9030000EA030000EB030000EC03003B
:1061AE0000ED030000EE030000EF030000F003001B
:1061BE0000F1030000F2030000F3030000F40300FB
:1061CE0000F5030000F6030000F7030000F80300DB
:1061DE0000F9030000FA030000FB030000FC0300BB
:1061EE0000FD030000FE030000FF0300000004009A
:1061FE000000010000010100000301000004010085
:10620E00000601000007010000080100000A01005D
:10621E00000B0100000D0100000E01000010010036
:10622E00001101000013010000140100001601000E
:10623E000017010000190100001A0100001C0100E6
:10624E00001D0100001F01000020010000220100BE
:10625E000024010000250100002701000028010094
:10626E00002A0100002C0100002D0100002F01006A
:10627E000030010000320100003401000035010041
:10628E000037010000390100003A0100003C010016
:10629E00003E0100004001000041010000430100EA
:1062AE00004501000047010000480100004A0100BE
:1062BE00004C0100004E0100005001000051010091
:1062CE000053010000550100005701000059010064
:1062DE00005B0100005D0100005E01000060010036
:1062EE000062010000640100006601000068010008
:1062FE00006A0100006C0100006E010000700100D8
:10630E0000720100007401000076010000780100A7
:10631E00007A0100007C0100007E01000080010077
:10632E000082010000840100008701000089010045
:10633E00008B0100008D0100008F01000091010013
:10634E00009301000096010000980100009A0100E0
:10635E00009C0100009F010000A1010000A30100AC
:10636E0000A5010000A8010000AA010000AC010078
:10637E0000AF010000B1010000B3010000B6010042
:10638E0000B8010000BA010000BD010000BF01000D
:10639E0000C2010000C4010000C6010000C90100D6
:1063AE0000CB010000CE010000D0010000D301009F
:1063BE0000D6010000D8010000DB010000DD010065
:1063CE0000E0010000E2010000E5010000E801002C
:1063DE0000EA010000ED010000F0010000F20100F2
:1063EE0000F5010000F8010000FA010000FD0100B7
:1063FE0000000306090C0F1215181B1E2124272A54
:10640E002D303336393B3E414346494B4E50525563
:10641E0057595B5E6062646667696B6C6E70717211
:10642E007475767778797A7B7B7C7D7D7E7E7E7EB9
:10643E007E7E7E7E7E7E7E7D7D7C7B7B7A7978778E
:10644E007675747271706E6C6B6967666462605E8D
:10645E005B59575552504E4B494643413E3B393698
:10646E0033302D2A2724211E1B1815120F0C090656
:10647E000300FCF9F6F3F0EDEAE7E4E1DEDBD8D554
:10648E00D2CFCCC9C6C4C1BEBCB9B6B4B1AFADAA29
:10649E00A8A6A4A19F9D9B9998969493918F8E8D5B
:1064AE008B8A898887868584848382828181818193
:1064BE00818181818181818282838484858687889E
:1064CE00898A8B8D8E8F9193949698999B9D9FA17F
:1064DE00A4A6A8AAADAFB1B4B6B9BCBEC1C4C6C954
:1064EE00CCCFD2D5D8DBDEE1E4E7EAEDF0F3F6F976
:1064FE00FCFF050B11171D23292F353A40454A4F36
:10650E0054585D6165686B6F717476787A7B7C7DAB
:10651E007D7D7D7D7C7B7A787674716F6B6865612D
:10652E005D58544F4A45403A352F29231D17110BFC
:10653E0005FFF8F2ECE6E0DAD4CEC8C3BDB8B3AED0
:10654E00A9A5A09C9895928E8C898785838281813E
:10655E00818181818182838587898C8E9295989C99
:10656E00A0A5A9AEB3B8BDC3C8CED4DAE0E6ECF2AE
:10657E00F8FF050B11171D23292F353A40454A4FB9
:10658E0054585D6165686B6F717476787A7B7C7D2B
:10659E007D7D7D7D7C7B7A787674716F6B686561AD
:1065AE005D58544F4A45403A352F29231D17110B7C
:1065BE0005FFF8F2ECE6E0DAD4CEC8C3BDB8B3AE50
:1065CE00A9A5A09C9895928E8C89878583828181BE
:1065DE00818181818182838587898C8E9295989C19
:1065EE00A0A5A9AEB3B8BDC3C8CED4DAE0E6ECF22E
:1065FE00F80008111A232C353D454D545A61666B2F
:10660E007074777A7C7D7D7D7D7B7976736F6A651C
:10661E005F58514A423A322920170E05FCF3EAE13F
:10662E00D8CFC6BEB6AFA8A19B96918D898684821F
:10663E00828282828486898D91969BA1A8AFB6BEF6
:10664E00C6CFD8E1EAF3FC050E172029323A424AAA
:10665E0051585F656A6F7376797B7D7D7D7D7C7A1F
:10666E007774706B66615A544D453D352C231A1163
:10667E000800F6EDE4DBD2C9C1B9B1AAA49D989386
:10668E008E8A878482828282828385888B8F949978
:10669E009FA6ADB4BCC4CCD5DEE7F0F9020B141D39
:1066AE00262F3840484F565D63686D7175787A7C39
:1066BE007D7D7D7C7A7875716D68635D564F48403F
:1066CE00382F261D140B02F9F0E7DED5CCC4BCB46E
:1066DE00ADA69F99948F8B888583828282828284D5
:1066EE00878A8E93989DA4AAB1B9C1C9D2DBE4ED75
:1066FE00F6FF0B17232F3A454F5861686F74787B5E
:10670E007D7D7D7B78746F6861584F453A2F2317D6
:10671E000BFFF2E6DACEC3B8AEA59C958E898582C4
:10672E008181818285898E959CA5AEB8C3CEDAE62D
:10673E00F2FFFF0B17232F3A454F5861686F74789D
:10674E007B7D7D7D7B78746F6861584F453A2F2332
:10675E00170BFFF2E6DACEC3B8AEA59C958E8985EF
:10676E00828181818285898E959CA5AEB8C3CEDA51
:10677E00E6F2FFFF0B17232F3A454F5861686F74EF
:10678E00787B7D7D7D7B78746F6861584F453A2F9D
:10679E0023170BFFF2E6DACEC3B8AEA59C958E8911
:1067AE0085828181818285898E959CA5AEB8C3CE66
:1067BE00DAE6F2FFFF0B17232F3A454F5861686F49
:1067CE0074787B7D7D7D7B78746F6861584F453A18
:1067DE002F23170BFFF2E6DACEC3B8AEA59C958E2B
:1067EE008985828181818285898E959CA5AEB8C36B
:1067FE00CEDAE6F2FFFF0E1D2C3A48545F68707633
:10680E007A7D7D7C79746D655A4F4235261708F86E
:10681E00E9DACBBDB0A59A928A8581818182868C78
:10682E00939CA7B3C0CEDDECFB0B1A293845515D06
:10683E00666F757A7D7D7D7A756F665D51453829F7
:10684E001A0BFBECDDCEC0B3A79C938C86828181A4
:10685E0081858A929AA5B0BDCBDAE9F8081726355C
:10686E00424F5A656D74797C7D7D7A7670685F547F
:10687E00483A2C1D0EFFEFE0D1C3B5A99E958D872A
:10688E008381818184899098A3AEBBC8D7E6F50534
:10689E00142332404D58636B73787C7D7D7B77710A
:1068AE006A61564A3D2F201102F2E3D4C5B8ACA05E
:1068BE00978E888381818183888E97A0ACB8C5D44A
:1068CE00E3F20211202F3D4A56616A71777B7D7D7E
:1068DE007C78736B63584D4032231405F5E6D7C8A8
:1068EE00BBAEA39890898481818183878D959EA963
:1068FE00B5C3D1E0EFFF1123354554616B747A7D3A
:10690E007D7B766F65584A3A291705F2E0CEBDAE0B
:10691E00A0958C85818181858C95A0AEBDCEE0F24F
:10692E000517293A4A58656F767B7D7D7A746B61BF
:10693E005445352311FFECDAC8B8A99C928983819E
:10694E008182878E98A5B3C3D4E6F80B1D2F404FD6
:10695E005D6871787C7D7C7871685D4F402F1D0B72
:10696E00F8E6D4C3B3A5988E878281818389929CE1
:10697E00A9B8C8DAECFF1123354554616B747A7DE2
:10698E007D7B766F65584A3A291705F2E0CEBDAE8B
:10699E00A0958C85818181858C95A0AEBDCEE0F2CF
:1069AE000517293A4A58656F767B7D7D7A746B613F
:1069BE005445352311FFECDAC8B8A99C928983811E
:1069CE008182878E98A5B3C3D4E6F80B1D2F404F56
:1069DE005D6871787C7D7C7871685D4F402F1D0BF2
:1069EE00F8E6D4C3B3A5988E878281818389929C61
:1069FE00A9B8C8DAECFF14293D4F5F6B757B7D7C1F
:106A0E00776F6354422F1A05EFDAC5B3A3958A83C5
:106A1E008181848C97A5B5C8DDF2081D3245566577
:106A2E0070787D7D7A746A5D4D3A2611FBE6D1BD94
:106A3E00AC9C908781818187909CACBDD1E6FB1187
:106A4E00263A4D5D6A747A7D7D7870655645321DA5
:106A5E0008F2DDC8B5A5978C848181838A95A3B38E
:106A6E00C5DAEF051A2F4254636F777C7D7B756B09
:106A7E005F4F3D2914FFE9D4C0AE9E92888281817A
:106A8E00868E9AA9BBCEE3F80E23384A5A68737ADB
:106A9E007D7D797166584835200BF5E0CBB8A79807
:106AAE008D858181838993A0B0C3D7EC02172C40CA
:106ABE0051616D767C7D7C766D6151402C1702ECB8
:106ACE00D7C3B0A09389838181858D98A7B8CBE079
:106ADE00F50B203548586671797D7D7A73685A4A70
:106AEE0038230EF8E3CEBBA99A8E868181828892D6
:106AFE009EAEC0D4E9FF172F455868747B7D7B741A
:106B0E006858452F17FFE6CEB8A5958982818289F0
:106B1E0095A5B8CEE6FF172F455868747B7D7B741C
:106B2E006858452F17FFE6CEB8A5958982818289D0
:106B3E0095A5B8CEE6FF172F455868747B7D7B74FC
:106B4E006858452F17FFE6CEB8A5958982818289B0
:106B5E0095A5B8CEE6FF172F455868747B7D7B74DC
:106B6E006858452F17FFE6CEB8A595898281828990
:106B7E0095A5B8CEE6FF172F455868747B7D7B74BC
:106B8E006858452F17FFE6CEB8A595898281828970
:106B9E0095A5B8CEE6FF172F455868747B7D7B749C
:106BAE006858452F17FFE6CEB8A595898281828950
:106BBE0095A5B8CEE6FF172F455868747B7D7B747C
:106BCE006858452F17FFE6CEB8A595898281828930
:106BDE0095A5B8CEE6FF172F455868747B7D7B745C
:106BEE006858452F17FFE6CEB8A595898281828910
:106BFE0095A5B8CEE6FF172F455868747B7D7B743C
:106C0E006858452F17FFE6CEB8A5958982818289EF
:106C1E0095A5B8CEE6FF172F455868747B7D7B741B
:106C2E006858452F17FFE6CEB8A5958982818289CF
:106C3E0095A5B8CEE6FF172F455868747B7D7B74FB
:106C4E006858452F17FFE6CEB8A5958982818289AF
:106C5E0095A5B8CEE6FF172F455868747B7D7B74DB
:106C6E006858452F17FFE6CEB8A59589828182898F
:106C7E0095A5B8CEE6FF172F455868747B7D7B74BB
:106C8E006858452F17FFE6CEB8A59589828182896F
:106C9E0095A5B8CEE6FF172F455868747B7D7B749B
:106CAE006858452F17FFE6CEB8A59589828182894F
:106CBE0095A5B8CEE6FF172F455868747B7D7B747B
:106CCE006858452F17FFE6CEB8A59589828182892F
:106CDE0095A5B8CEE6FF172F455868747B7D7B745B
:106CEE006858452F17FFE6CEB8A59589828182890F
:106CFE0095A5B8CEE67F7E7D7C7B7A7978777675A2
:106D0E0074737271706F6E6D6C6B6A6968676665AD
:106D1E0064636261605F5E5D5C5B5A59585756559D
:106D2E0054535251504F4E4D4C4B4A49484746458D
:106D3E0044434241403F3E3D3C3B3A39383736357D
:106D4E0034333231302F2E2D2C2B2A29282726256D
:106D5E0024232221201F1E1D1C1B1A19181716155D
:106D6E0014131211100F0E0D0C0B0A09080706054D
:106D7E000403020100FFFEFDFCFBFAF9F8F7F6F53D
:106D8E00F4F3F2F1F0EFEEEDECEBEAE9E8E7E6E52D
:106D9E00E4E3E2E1E0DFDEDDDCDBDAD9D8D7D6D51D
:106DAE00D4D3D2D1D0CFCECDCCCBCAC9C8C7C6C50D
:106DBE00C4C3C2C1C0BFBEBDBCBBBAB9B8B7B6B5FD
:106DCE00B4B3B2B1B0AFAEADACABAAA9A8A7A6A5ED
:106DDE00A4A3A2A1A09F9E9D9C9B9A9998979695DD
:106DEE0094939291908F8E8D8C8B8A8988878685CD
:106DFE008483828281807E7C7A78767472706E6CE7
:106E0E006A68666462605E5C5A58565452504E4CC4
:106E1E004A48464442403E3C3A38363432302E2CB4
:106E2E002A28262422201E1C1A18161412100E0CA4
:106E3E000A0806040200FEFCFAF8F6F4F2F0EEEC94
:106E4E00EAE8E6E4E2E0DEDCDAD8D6D4D2D0CECC84
:106E5E00CAC8C6C4C2C0BEBCBAB8B6B4B2B0AEAC74
:106E6E00AAA8A6A4A2A09E9C9A98969492908E8C64
:106E7E008A88868482807E7C7A78767472706E6C54
:106E8E006A68666462605E5C5A58565452504E4C44
:106E9E004A48464442403E3C3A38363432302E2C34
:106EAE002A28262422201E1C1A18161412100E0C24
:106EBE000A0806040200FEFCFAF8F6F4F2F0EEEC14
:106ECE00EAE8E6E4E2E0DEDCDAD8D6D4D2D0CECC04
:106EDE00CAC8C6C4C2C0BEBCBAB8B6B4B2B0AEACF4
:106EEE00AAA8A6A4A2A09E9C9A98969492908E8CE4
:106EFE008A000306090C0F1215181B1E2124272ABF
:106F0E002D303336393B3E414346494B4E50525558
:106F1E0057595B5E6062646667696B6C6E70717206
:106F2E007475767778797A7B7B7C7D7D7E7E7E7EAE
:106F3E007E7E7E7E7E7E7E7D7D7C7B7B7A79787783
:106F4E007675747271706E6C6B6967666462605E82
:106F5E005B59575552504E4B494643413E3B39368D
:106F6E0033302D2A2724211E1B1815120F0C09064B
:106F7E000300FCF9F6F3F0EDEAE7E4E1DEDBD8D549
:106F8E00D2CFCCC9C6C4C1BEBCB9B6B4B1AFADAA1E
:106F9E00A8A6A4A19F9D9B9998969493918F8E8D50
:106FAE008B8A898887868584848382828181818188
:106FBE008181818181818182828384848586878893
:106FCE00898A8B8D8E8F9193949698999B9D9FA174
:106FDE00A4A6A8AAADAFB1B4B6B9BCBEC1C4C6C949
:106FEE00CCCFD2D5D8DBDEE1E4E7EAEDF0F3F6F96B
:106FFE00FC181A1C202224282A2C303234383A3D10
:10700E003F4245474A4C4E525356595B5D5E616353
:10701E006567696C6D6F717374757778474A4A4B03
:10702E004D4E4E4F51525353535455555656565628
:10703E005656565656565655555453535352514FFF
:10704E004E4E4D4B4A4A477877757473716F6D6C1F
:10705E0069676563615E5D5B595653524E4C4A4794
:10706E0045423F3D3A383432302C2A282422201C07
:10707E001AE4E2DEDCDAD6D4D2CECCCAC6C4C1BFA4
:10708E00BCB9B7B4B2B0ACABA8A5A3A1A09D9B9957
:10709E00979592918F8D8B8A898786B7B4B4B3B149
:1070AE00B0B0AFADACABABABAAA9A9A8A8A8A8A825
:1070BE00A8A8A8A8A8A8A9A9AAABABABACADAFB01D
:1070CE00B0B1B3B4B4B78687898A8B8D8F91929500
:1070DE0097999B9DA0A1A3A5A8ABACB0B2B4B7B92C
:1070EE00BCBFC1C4C6CACCCED2D4D6DADCDEE2E492
:1070FE00E6030E19232C364049535A636A7177738F
:10710E00706B68625F5A56514E494643403F3D3C54
:10711E003C3C3C3C3C3C3D3C3C3D3D3C3C3A3937A8
:10712E0036312E2B28221F1C1914120F0B0908069C
:10713E0005050608080B0E1114191C1F23282B2FEA
:10714E003436393C3D3D4040404040403F40403F5A
:10715E003F3F4040404345464B4E53565A5F626850
:10716E006B70746E68625A514B42392F261C110691
:10717E00FDF2E8DDD4C9BEB5ACA39A928A84878AA3
:10718E009093989DA1A4AAADB2B5B8BDBEC0C1C31F
:10719E00C3C4C3C3C3C3C3C3C3C1C3C3C3C4C6C7AA
:1071AE00CACED1D5D8DBE0E3E6EBEEF1F4F7F8F892
:1071BE00FAFAFAF8F5F4F1EEECE8E4E0DBD8D5CF24
:1071CE00CCC9C6C4C1C1C0BEBEC0C0BEC0C0C0C096
:1071DE00C0C0C0BEBEBDBAB7B5B0ADA9A4A09D9883
:1071EE0093908A878D939AA3AAB2BBC6D1DAE4EFA5
:1071FE00FA81878D93999FA5ABB1B7BDC3C9CFD582
:10720E00DBE1E7EDF3F7FD04080E14181E22262C21
:10721E003034383E42464A4E5054585A5E62646686
:10722E006A6C6E7072747678787A7C7C7E7E7E7EE6
:10723E007E7E7E7E7E7E7E7C7C7A787876747270A0
:10724E006E6C6A6664625E5A5854504E4A46423EAE
:10725E003834302C26221E18140E0804FDF7F3EDD8
:10726E00E7E1DBD5CFC9C3BDB7B1ABA59F99938D70
:10727E008781888E949AA0A6ACB2B8BEC4CAD0D666
:10728E00DCE2E8EEF4F8FE05090F15191F23272D91
:10729E003135393F43474B4F5155595B5F636567F6
:1072AE006B6D6F7173757779797B7D7D7E7E7E7E5A
:1072BE007E7E7E7E7E7E7E7D7D7B79797775737117
:1072CE006F6D6B6765635F5B5955514F4B47433F1E
:1072DE003935312D27231F19150F0905FEF8F4EE48
:1072EE00E8E2DCD6D0CAC4BEB8B2ACA6A09A948EE0
:1072FE00887E7E7E7E7E7E7E7E7E7E7E7E7E7E7E96
:10730E007E7E7E7E7E7E7E7E7E7E7E7E7E7E7E7E8F
:10731E007E7E7E7E7E7E7E7E7E7E7E7E7E7E7E7E7F
:10732E007E7E7E7E7E7E7E7E7E7E7E7E7E7E7E7E6F
:10733E007E7E7E7E7E7E7E7E7E7E7E7E7E7E7E7E5F
:10734E007E7E7E7E7E7E7E7E7E7E7E7E7E7E7E7E4F
:10735E007E7E7E7E7E7E7E7E7E7E7E7E7E7E7E7E3F
:10736E007E7E7E7E7E7E7E7E7E7E7E7E7E7E7E7E2F
:10737E007E818181818181818181818181818181F2
:10738E0081818181818181818181818181818181DF
:10739E0081818181818181818181818181818181CF
:1073AE0081818181818181818181818181818181BF
:1073BE0081818181818181818181818181818181AF
:1073CE00818181818181818181818181818181819F
:1073DE00818181818181818181818181818181818F
:1073EE00818181818181818181818181818181817F
:1073FE0081F2F6FAFD03070A0D1013181E252C351F
:10740E003E474F565D62656767666563615F5C5AAE
:10741E005958595B5D6165686B6D6D6B6864605B37
:10742E00554F4840372C211509FFF4EAE1D8D1CC4D
:10743E00C9CACED5DFE9F3FD050C111416161411C9
:10744E000E0B0908090B0E111417191A1A19171415
:10745E00110D0907050506080B0E101315171A1D39
:10746E0020222323211E1B19191A1E252E39444FA3
:10747E005A63696B69635A4D3E2F21160D0603033D
:10748E00050A10161B20242625221D180F05FAEDBD
:10749E00DFD2C5B9AFA8A4A3A5AAB1BAC5D0DAE206
:1074AE00E7EAEAE7E1DAD2C9C0B6ADA59E9A999AA3
:1074BE009FA5ADB5BEC6CDD1D4D5D5D3D0CDCCCD6F
:1074CE00D0D4D9DEE4E9EDF1F4F7FAFDFEFDFAF6DB
:1074DE00F0E9E1D8CFC5BCB3ACA5A09B9894918E32
:1074EE008C8B8C8E9298A0A9B3BDC7D1DAE2E6EA56
:1074FE00EE0A2240575C564E42321C01F2F604143C
:10750E001A1E22282C30343E5060625A524E4A4681
:10751E00403A38383424120600F6E4D0C0BABEC061
:10752E00BABEC0BAB0A8A4A2A4ACB8C2C4BEB2AA15
:10753E00AAAAA49C9BA6C0E0FA0202FEF6F0EEEE0A
:10754E00EBE0D2C4C0C6D2DEE0E0E4F00418201AAC
:10755E0006F0DCD2CCC6C2C0C8DAF40A1A1C0EFA87
:10756E00E4D6D8DCDCD6CFCACCD2D0CAC6C7CAD0F5
:10757E00D6DEE6F0F6FA000E222B28201A181A1C78
:10758E00160E0600FAF4F4F9FE00FEF4ECEEF4F238
:10759E00ECE6E4E4E8F2FC0A24383E3F403E3626B0
:1075AE000CF0DAD4D4D8DEE6F0FC061624303A3AE3
:1075BE002E2420201E1809F8ECECF2FF0A182630B3
:1075CE00383C4040403E3C40464B4C44321E120A32
:1075DE0003FCEEDED6D4D4DADCDADAE0EC002246B6
:1075EE00667472685E5042322218161C222A343893
:1075FE003838363206FEFDFEF4EEECF0E6E6E6EC4A
:10760E00DEE0E0E4D6DAD8D8CCD0D2D0CCCED4CE10
:10761E00CED0D6CED0D2D8CCD0D4D6D0D6DCDEDA20
:10762E00E0E8E4E2E8F0E8ECF0F6EEF4F8FEF8005C
:10763E00040602070E0C0A0D100C121012080A088E
:10764E0008FAFEFE03EE001828303E4C4C4A494A1A
:10765E003E38373A353A4450505A636A60615E5A42
:10766E004A4848423E424A464A4C5446443C3C26CE
:10767E00221A180A0E10100A0C0E04FEF8F6E4DC9C
:10768E00D4D4C6C6C8CCC2C6C8C6BABAB6AEA2A1F3
:10769E00A29A989CA49EA3A6AEA2A6A4A79A9EA0C8
:1076AE00A29EA6B0B2B4BCC6C1C4C8CEC6CACED6FF
:1076BE00D1DBE4EDEBF6FE0000060E0A080E161006
:1076CE00151C28242A303830363A3C34383E3C38A3
:1076DE003E444042464E444644483A3C3E40363A8A
:1076EE003C3A323438302A2A2C1E1A181C0E10102E
:1076FE00140608060008131E222E3C464A566466DF
:10770E006C727A7476747464625C5446423E3226AD
:10771E001E1A0800FAF8E6E4DFDCD0D2D4D2D0D4B8
:10772E00DAD4D4D6DAD2D6D8DAD0D2D4D0CACACC19
:10773E00C1BEB8B8A8A6A2A2969898948E92989414
:10774E00989EA8A4ACB4BEC0CCD8E1E6F200020963
:10775E00141E1E262C322E34383A363A3E39363620
:10776E003A30303032282A2A2A23272C2A282C3243
:10777E002C2C30362E3235362E30322E2A2A2C2212
:10778E001E181808060200F2F0ECE4DAD8D8CECAB9
:10779E00CACCC0C0C2C4BCC2C6C8C4CAD2CFD2D85A
:1077AE00E0DCE2E5EAE4EAF0F0EEF2F6F2F2F4FA08
:1077BE00F3F6F8FCF4F8FAFCF8FE020002070E0CE1
:1077CE0010181C1C222A2A2A2E363234373C343802
:1077DE00393A323334302828291E1C16120A0E0666
:1077EE0002FEFEFCF2E6E2E0D4D0CED4CCD2DAE257
:1077FE00E4EEFA00FEFAF6F6EAEBEAEAE6E8ECEA7E
:10780E00E8ECF2F0F4FA00000610181A2530363AB9
:10781E00424C4C52585E5B5E62645E60625C5654D3
:10782E0052463E3632201A1008F8F2EAE0D2CAC6A4
:10783E00B8B0A8A69895909086888888848A8E8EEF
:10784E0090969E9EA4ACB4B6BEC8CED0DAE2E6EB5D
:10785E00F4FCFC00040A060A101210141615121479
:10786E001812131416101214141014181614181EBD
:10787E001A1C202624282C302C303637363A3E3A25
:10788E003A3A3E383838382E2E2C28201E1E140E2A
:10789E000A08FEFAF4F2E6E4E0DCD2D0D0C9C4C4A1
:1078AE00C6BEBEBEC0BABEC2C3C0C6CACCCCD2DA79
:1078BE00DADEE4EAEAF0F8F8FA000402060A100D3D
:1078CE0012141812161A1816181C1616171A141641
:1078DE00181A141618161216181414161A14171835
:1078EE001C161A1C1C181816141616141014141222
:1078FE0008060300000814202832404A545E6A70BD
:10790E00767C78766C64645A5042362A1C0E00F4EB
:10791E00E2D6C8BCAEA49E9492908F8E96989CA3ED
:10792E00AAAEB6BEC4CCD6E0E4ECF4F8FC00040477
:10793E00060A0A0A0E121214181A1A1E2222262AD1
:10794E002C2D3236383A3E403E40403C3A36342AB0
:10795E002620160E0800F6EFE6DED2CCC6BCB8B472
:10796E00B0ACACAEAEB0B4BABCC3CAD0D6E0E8EFE1
:10797E00F800060C141A1E22282A2C2E302E303017
:10798E002E2C2C2B262424221C1C1A1616141410F2
:10799E0010100C0A0A0A05040200FEFCFAF4F2F0BA
:1079AE00ECE7E4E2DCDAD8D6D2D2D4D0D2D4D6D632
:1079BE00DADEE0E4EAF0F4FA0004080F16181D22ED
:1079CE0026282A2E2C2E302E2C2A2A2622201E162F
:1079DE0014120C08060400FEFCF8F6F4F2EEF0ECBD
:1079EE00E8E6E4E2DAD6D3CECACACCCCD2DAE2E802
:1079FE00F4FE000000020000FAF6F3F2F0F8FE08C2
:107A0E00142532404D5960676B6B6967655D554B48
:107A1E004130200EFAE6D2C3B1A79E99979B9FA440
:107A2E00ABB5BCC2CAD2D9E0EAF2F8FE0204060730
:107A3E00060404020202060C101821282E353B3DC6
:107A4E003F41403D3A362E27201408FEF2E1D6CAB9
:107A5E00C0B7B3B0AFB1B5BBC0C9D1D8E0EAF2F888
:107A6E0000080D12181C1C1E1E1C1A1818141416B1
:107A7E0016171A1D1E2023222221211D1A18140D3D
:107A8E000802FAF4ECE4DAD4CFC8C5C5C6C6CBD02A
:107A9E00D5DAE3EAF1F800060B12181C2024242490
:107AAE0023231E1D1B18141212100E0E0F0C0E0E79
:107ABE000C0A0A0906040200FCF9F6F0ECE8E4E010
:107ACE00DDDCD8D8D9DBDCE1E6EAF0F6FC00060C0A
:107ADE0010151A1E1E20232220201E1A18100C0A02
:107AEE000804040200000000FEFCFCFCFAFAFA0A8C
:107AFE000C040E12140800EEE2CEC6C0C1C4D1DED4
:107B0E00EDFA060E12100E04FEF4EEE6E6E9EEF4C1
:107B1E00000A141C24282726221A140C0800000020
:107B2E0002060E161A202424221D180C02FCF4EC58
:107B3E00EAECEEF2FA00040A0C0A04FEF8ECE3DCBE
:107B4E00DAE1E8F0FA0004060602FEF8F2EAE8E8E6
:107B5E00EAEEF600060C1418181816100A0602FEA5
:107B6E00FE0002060C12161A1C1B18140C00F6E866
:107B7E00DCCDC8C8D2E0FA1430485B635B4D3416D6
:107B8E00F7DECCC6CCE400244669767B76623A18E2
:107B9E00F0D3B8B3B5C8E0041E3A464E3E2C0CF2F4
:107BAE00CAB49F9997A7B8D0E4FC060C0804F6E671
:107BBE00D4C8B9B4B4B9C0CEDEECF8040D121416A4
:107BCE00120C0600F8F4F2F2F3FC06121E2F3A40E5
:107BDE004343382D1C10FEF5EEEEF2000C1A28343D
:107BEE0038342C1E0AF8E4D6C9C7CBD4E0F100080D
:107BFE0002FDF6F4F800080C0E05FEF6F3F4F8FE9E
:107C0E0000080802FE000A080400F5F0EEF2F80083
:107C1E00FE000616202210FAD3CEDCF60C1C181627
:107C2E00181A1404ECD4C6D4FC30545436FACCB61C
:107C3E00CAED1E383C1F0A000000FCE0DCEA0C3ADC
:107C4E0058531CE0B6BEDF041E2C1E161220241C38
:107C5E00EECAB2CE003B5E5824E8C4CCE9020D0455
:107C6E0000162A342C04D7B4BADC1436422E12F580
:107C7E00EEEDF0EAE5E4FA102E332401E4D6E2FC50
:107C8E00121E1A0C02000000FCF4F1FC0E252E262A
:107C9E000DF8E4FEF2020C14121213151008FAF08D
:107CAE00ECFA081A1C1606FAF5F900040606080A7C
:107CBE000E0C04FAF0ECF2FE0C14130A02FBF8F8A8
:107CCE00F8F8FAFC02080C0800F8F2F2F8010600C7
:107CDE00F8F6020E0F00F6F0ECF2FA02060A0A07A8
:107CEE0004080804ECDEE0EC0012282E2107F4A6AE
:107CFE00F818735AFFFC1AB4BAE548D8031A5E4056
:107D0E00E752639BC7DED0019301CFC3A87593F3EF
:107D1E000BB8B06F95AA918F3C2AF43A1EA9928C9B
:107D2E006DD24CC25C669B2B46D279C2170CA8262C
:107D3E00ACED6BC04BF1AD98E191A8C5FFB3EEFF72
:107D4E0008648F27DA499D5A65F85DE91ABED73F58
:107D5E00FBF5161BD7E46014EEE3A25F8BAA424E2E
:107D6E00C307D36D7AF8A5C96042B232631E0A22E8
:107D7E00F08B14757853D4B38071921739C1130EEA
:107D8E00FD3A39DB8D26B1147C021FBE33035F959D
:107D9E00D4F33EE78BD75F84038F1E9F99F199B77B
:107DAE00EA83D2D8F14EF8BFD10CC7CD6206A8C473
:107DBE00C5745FABF8CA93FABD94DE48CAF7BDA787
:107DCE0012E8A4F3A02C60B0CDBBBC48DC86E8BEA4
:107DDE00345AB922414CB1F0425CE00F0351211FDD
:107DEE00D278A9DE22C309B12F6B03B91FA45B00A1
:107DFE00007F8285888B8E9194979A9DA0A3A6A9C9
:107E0E00ACAFB2B5B8BABDC0C2C5C8CACDCFD1D459
:107E1E00D6D8DADDDFE1E3E5E6E8EAEBEDEFF0F107
:107E2E00F3F4F5F6F7F8F9FAFAFBFCFCFDFDFDFDAF
:107E3E00FDFDFDFDFDFDFDFCFCFBFAFAF9F8F7F684
:107E4E00F5F4F3F1F0EFEDEBEAE8E6E5E3E1DFDD83
:107E5E00DAD8D6D4D1CFCDCAC8CEC2C0BDBAB8B585
:107E6E00B2AFACA9A6A3A09D9A9794918E8B88854C
:107E7E00827F7B7875726F6C696663605D5A57544A
:107E8E00514E4B484543403D3B383533302E2C291F
:107E9E00272523201E1C1A1817151312100E0D0C51
:107EAE000A09080706050403030201010000000089
:107EBE000000000000000001010203030405060794
:107ECE0008090A0C0D0E1012131517181A1C1E2075
:107EDE00232527292C2E303335383B3D404345484A
:107EEE004B4E5154575A5D606366696C6F7275786C
:107EFE007B000102030405060708090A0B0C0D0E90
:107F0E000F101112131415161718191A1B1C1D1EFB
:107F1E001F202122232425262728292A2B2C2D2EEB
:107F2E002F303132333435363738393A3B3C3D3EDB
:107F3E003F404142434445464748494A4B4C4D4ECB
:107F4E004F505152535455565758595A5B5C5D5EBB
:107F5E005F606162636465666768696A6B6C6D6EAB
:107F6E006F707172737475767778797A7B7C7D7E9B
:107F7E007F808182838485868788898A8B8C8D8E8B
:107F8E008F909192939495969798999A9B9C9D9E7B
:107F9E009FA0A1A2A3A4A5A6A7A8A9AAABACADAE6B
:107FAE00AFB0B1B2B3B4B5B6B7B8B9BABBBCBDBE5B
:107FBE00BFC0C1C2C3C4C5C6C7C8C9CACBCCCDCE4B
:107FCE00CFD0D1D2D3D4D5D6D7D8D9DADBDCDDDE3B
:107FDE00DFE0E1E2E3E4E5E6E7E8E9EAEBECEDEE2B
:107FEE00EFF0F1F2F3F4F5F6F7F8F9FAFBFCFDFE1B
:027FFE00FF0082
:020000040030CA
:0E000000040C191EFF8180FF0FC00FE00F409F
:00000001FF
