:0400000007EF00F016
:10000800018209ED00F00DEF03F00600F3CF47F091
:10001800F4CF48F0F6CF49F0F7CF4AF0F8CF4BF0DD
:10002800F5CF4CF036C081FFFF0E516E7D0E526E3B
:10003800FF0E546E630E556EFF0E4D6E630E4E6EC0
:10004800D8900A34F66E0B34F76E010EF626630E5E
:10005800F7220900F5CF41F00900F5CF42F04150F1
:10006800162642501722000E1822000E1922000EE2
:100078001614566E000E1714576EF00E1814586E9C
:100088000F0E1914596E140E416ED8905932583209
:1000980057325632412E49EF00F03250562633502F
:1000A8005722000E5822000E5922000E5624416E87
:1000B800090E5720426E41504D2642504E224DC0E7
:1000C800F6FF4EC0F7FF0800F5507F0F376E7F0E22
:1000D800376071EF00F073EF00F076EF00F0536ACD
:1000E80078EF00F0010E536E3A503702F350376E36
:1000F800F4501E6E1F6A206A216A810E1E26FF0EAA
:100108001F22FF0E2022FF0E212220C021F01FC037
:1001180020F01EC01FF01E6A5350D8B496EF00F0AE
:1001280098EF00F0C1EF00F0D8900634F66E07346F
:10013800F76E010EF626630EF7220900F5CF41F09F
:100148000900F5CF42F041501A2642501B22000EFA
:100158001C22000E1D225C50D8B4B5EF00F0B7EF9A
:1001680000F0EEEF00F01E501A261F501B22205000
:100178001C2221501D22EEEF00F0D8900634F66EB6
:100188000734F76E010EF626630EF7220900F5CF45
:1001980041F00900F5CF42F04150436E4250446EA1
:1001A800456A466A43501A5E44501B5A45501C5AC9
:1001B80046501D5A5C50D8B4E4EF00F0E6EF00F06A
:1001C800EEEF00F01E501A5E1F501B5A20501C5AAA
:1001D80021501D5A83A6F3EF00F0F5EF00F0FDEF74
:1001E80000F0000E1A6E000E1B6E000E1C6E000E44
:1001F8001D6E000E1A14566E000E1B14576E800EDC
:100208001C14586E7F0E1D14596E170E416ED8902F
:100218005932583257325632412E0BEF01F05A0EEE
:10022800D66E3450D8A41BEF01F01DEF01F023EF78
:1002380001F056505426575055224BEF01F05650B6
:100248005126575052225A5051265B50522251C0C3
:10025800F6FF52C0F7FF0800F5CF3EF03EC04FF062
:10026800506A3F503E02F3503E6EF450566E576A45
:10027800586A596AD89056365736583659365650AD
:100288004F26575050224F50542650505522355023
:10029800D8B451EF01F053EF01F057EF01F01E50C1
:1002A80028261F5029222C502824416E2D50292001
:1002B800426E4150542642505522800E376E800EB1
:1002C800386E54C0F6FF55C0F7FF0800F5503726C2
:1002D800010E552654C0F6FF55C0F7FF0800F5502B
:1002E80038263B507F083702F350376EF4CF37F08B
:1002F8003B503802F350386EF4CF38F03850372678
:1003080037C036F0F2944CC0F5FF4BC0F8FF4AC036
:10031800F7FF49C0F6FF48C0F4FF47C0F3FF01925A
:100328001100936A92689568030E966E010EC26E6C
:10033800080EC16EAB0EC06EC08ED80ED56E9F8CE7
:100348009D9CF28CF28AF28EF296F6EF02F0010E84
:10035800C26EC08EC2822B6A000E2A6EC2B2B7EF7E
:1003680001F0B9EF01F0B2EF01F0C4502A26000EF7
:100378002B222A502B6E2A6AC3502A26000E2B22C3
:10038800050ED8902A362B36E82EC5EF01F02B50F3
:1003980007E1020E2A5CD8B0D4EF01F0D6EF01F0E5
:1003A800D9EF01F02B6A010E2A6E2AC006F02BC085
:1003B80007F0086A096A050EC26EC08EC2822B6AEF
:1003C800000E2A6EC2B2EBEF01F0EDEF01F0E6EF9E
:1003D80001F0C4502A26000E2B222A502B6E2A6ABE
:1003E800C3502A26000E2B225D50D8A4FEEF01F040
:1003F80000EF02F003EF02F02F6A000E2E6E2E506F
:100408002A262F502B22800E2A14266E030E2B1418
:10041800276ED8902636273626C028F027C029F020
:100428002A507F0B3B6E0D0EC26EC09EC282406A80
:10043800C2B221EF02F023EF02F01CEF02F0C45029
:10044800402640C03FF0110EC26EC08EC2822B6A99
:10045800000E2A6EC2B233EF02F035EF02F02EEF33
:1004680002F0C4502A26000E2B222A502B6E2A6A2C
:10047800C3502A26000E2B22D8902B322A32D8902D
:100488002B322A32D8902B322A322AC00AF02BC0BB
:100498000BF00C6A0D6A150EC26EC09EC282406ACD
:1004A800C2B259EF02F05BEF02F054EF02F0C4CF92
:1004B80040F040C03AF03AC039F083B066EF02F03D
:1004C80068EF02F084EF02F022502310D8A46FEFF7
:1004D80002F071EF02F084EF02F00F0E236EA00E0F
:1004E800226E010E33263204080E3358D8A07FEF4F
:1004F80002F081EF02F084EF02F0336A000E326EF0
:1005080083B289EF02F08BEF02F0AAEF02F02250DB
:100518002310D8A492EF02F094EF02F0AAEF02F0B1
:100528000F0E236EA00E226E5D2A040E5D18D8A44D
:10053800A0EF02F0A2EF02F0A4EF02F0010E5D6E50
:100548005D50010B5C6E5D50020B356E83B4AFEFEE
:1005580002F0B1EF02F0CEEF02F022502310D8A43F
:10056800B8EF02F0BAEF02F0CEEF02F00F0E236EF2
:10057800A00E226E090E2D261B0E2D5CD8A0C7EFEB
:1005880002F0C9EF02F0CEEF02F02D6A000E2C6ED9
:10059800010E341A83B8D3EF02F0D5EF02F0FDEF65
:1005A80002F022502310D8A4DCEF02F0DEEF02F0B4
:1005B800FDEF02F00F0E236EA00E226E5B045A10A0
:1005C800D8A4E9EF02F0EBEF02F0F0EF02F05B6A7B
:1005D800000E5A6EFDEF02F0010E5B6E000E5A6EB1
:1005E800FDEF02F05E50010AD8B4ABEF01F0FDEF69
:1005F80002F022502310D8B404EF03F006EF03F002
:10060800F6EF02F02206D8A02306F6EF02F007EF75
:1006180000F0540EF66E060EF76E000EF86E00EE41
:100628005AF010EE05F00900F5CFEEFFE550E15065
:10063800FAE100EE02F03F0EEE6AE806FDE10190F5
:100648000192000EF86E000195EF01F00001010122
:0106580001A0
:106300000000020302060209020B020E021102142F
:106310000217021A021D0220022302260229022C61
:10632000022F023202350238023C023F024202458D
:106330000248024B024F025202550259025C025FB0
:10634000026302660269026D027002740277027BC8
:10635000027E028202850289028C029002930297D9
:10636000029B029E02A202A602AA02AD02B102B5DF
:1063700002B902BD02C002C402C802CC02D002D4DB
:1063800002D802DC02E002E402E802EC02F102F5CB
:1063900002F902FD02010305030A030E03120317AB
:1063A000031B031F03240328032D03310336033A81
:1063B000033F03430348034D03510356035B035F4D
:1063C00003640369036E03730378037C038103860C
:1063D000038B03900395039A039F03A503AA03AFBE
:1063E00003B403B903BF03C403C903CF03D403D960
:1063F00003DF03E403EA03EF03F503FA03000400F9
:106400000306090C0F1215181B1E2124272A2D30F4
:106410003336393B3E414346494B4E50525557590E
:106420005B5E6062646667696B6C6E7071727475D6
:10643000767778797A7B7B7C7D7D7E7E7E7E7E7EA4
:106440007E7E7E7E7E7D7D7C7B7B7A79787776759D
:10645000747271706E6C6B6967666462605E5B59C2
:10646000575552504E4B494643413E3B39363330E7
:106470002D2A2724211E1B1815120F0C09060300B4
:10648000FCF9F6F3F0EDEAE7E4E1DEDBD8D5D2CFB4
:10649000CCC9C6C4C1BEBCB9B6B4B1AFADAAA8A67A
:1064A000A4A19F9D9B9998969493918F8E8D8B8A92
:1064B00089888786858484838282818181818181A4
:1064C0008181818181828283848485868788898A8B
:1064D0008B8D8E8F9193949698999B9D9FA1A4A646
:1064E000A8AAADAFB1B4B6B9BCBEC1C4C6C9CCCF01
:1064F000D2D5D8DBDEE1E4E7EAEDF0F3F6F9FCFF14
:10650000050B11171D23292F353A40454A4F545882
:106510005D6165686B6F717476787A7B7C7D7D7D5B
:106520007D7D7C7B7A787674716F6B6865615D5870
:10653000544F4A45403A352F29231D17110B05FFAB
:10654000F8F2ECE6E0DAD4CEC8C3BDB8B3AEA9A584
:10655000A09C9895928E8C89878583828181818188
:1065600081818182838587898C8E9295989CA0A554
:10657000A9AEB3B8BDC3C8CED4DAE0E6ECF2F8FFFA
:10658000050B11171D23292F353A40454A4F545802
:106590005D6165686B6F717476787A7B7C7D7D7DDB
:1065A0007D7D7C7B7A787674716F6B6865615D58F0
:1065B000544F4A45403A352F29231D17110B05FF2B
:1065C000F8F2ECE6E0DAD4CEC8C3BDB8B3AEA9A504
:1065D000A09C9895928E8C89878583828181818108
:1065E00081818182838587898C8E9295989CA0A5D4
:1065F000A9AEB3B8BDC3C8CED4DAE0E6ECF2F80079
:1066000008111A232C353D454D545A61666B707440
:10661000777A7C7D7D7D7D7B7976736F6A655F5847
:10662000514A423A322920170E05FCF3EAE1D8CF4D
:10663000C6BEB6AFA8A19B96918D898684828282C0
:1066400082828486898D91969BA1A8AFB6BEC6CF63
:10665000D8E1EAF3FC050E172029323A424A515894
:106660005F656A6F7376797B7D7D7D7D7C7A7774DB
:10667000706B66615A544D453D352C231A11080044
:10668000F6EDE4DBD2C9C1B9B1AAA49D98938E8A74
:10669000878482828282828385888B8F94999FA649
:1066A000ADB4BCC4CCD5DEE7F0F9020B141D262F27
:1066B0003840484F565D63686D7175787A7C7D7D92
:1066C0007D7C7A7875716D68635D564F4840382FD0
:1066D000261D140B02F9F0E7DED5CCC4BCB4ADA680
:1066E0009F99948F8B888583828282828284878A15
:1066F0008E93989DA4AAB1B9C1C9D2DBE4EDF6FF8F
:106700000B17232F3A454F5861686F74787B7D7D56
:106710007D7B78746F6861584F453A2F23170BFFC4
:10672000F2E6DACEC3B8AEA59C958E8985828181CA
:10673000818285898E959CA5AEB8C3CEDAE6F2FF3C
:10674000FF0B17232F3A454F5861686F74787B7D94
:106750007D7D7B78746F6861584F453A2F23170B06
:10676000FFF2E6DACEC3B8AEA59C958E898582810C
:1067700081818285898E959CA5AEB8C3CEDAE6F27A
:10678000FFFF0B17232F3A454F5861686F74787BD2
:106790007D7D7D7B78746F6861584F453A2F231754
:1067A0000BFFF2E6DACEC3B8AEA59C958E89858242
:1067B0008181818285898E959CA5AEB8C3CEDAE6AB
:1067C000F2FFFF0B17232F3A454F5861686F74781B
:1067D0007B7D7D7D7B78746F6861584F453A2F23B0
:1067E000170BFFF2E6DACEC3B8AEA59C958E89856D
:1067F000828181818285898E959CA5AEB8C3CEDACF
:10680000E6F2FFFF0E1D2C3A48545F6870767A7DE1
:106810007D7C79746D655A4F4235261708F8E9DAA0
:10682000CBBDB0A59A928A8581818182868C939C0A
:10683000A7B3C0CEDDECFB0B1A293845515D666F5E
:10684000757A7D7D7D7A756F665D514538291A0BA5
:10685000FBECDDCEC0B3A79C938C868281818185C1
:106860008A929AA5B0BDCBDAE9F808172635424FCF
:106870005A656D74797C7D7D7A7670685F54483A8C
:106880002C1D0EFFEFE0D1C3B5A99E958D878381A6
:10689000818184899098A3AEBBC8D7E6F5051423FF
:1068A00032404D58636B73787C7D7D7B77716A6174
:1068B000564A3D2F201102F2E3D4C5B8ACA0978E02
:1068C000888381818183888E97A0ACB8C5D4E3F298
:1068D0000211202F3D4A56616A71777B7D7D7C785D
:1068E000736B63584D4032231405F5E6D7C8BBAE31
:1068F000A39890898481818183878D959EA9B5C352
:10690000D1E0EFFF1123354554616B747A7D7D7BB7
:10691000766F65584A3A291705F2E0CEBDAEA095CC
:106920008C85818181858C95A0AEBDCEE0F2051766
:10693000293A4A58656F767B7D7D7A746B61544540
:10694000352311FFECDAC8B8A99C92898381818232
:10695000878E98A5B3C3D4E6F80B1D2F404F5D6812
:1069600071787C7D7C7871685D4F402F1D0BF8E657
:10697000D4C3B3A5988E878281818389929CA9B85C
:10698000C8DAECFF1123354554616B747A7D7D7B49
:10699000766F65584A3A291705F2E0CEBDAEA0954C
:1069A0008C85818181858C95A0AEBDCEE0F20517E6
:1069B000293A4A58656F767B7D7D7A746B615445C0
:1069C000352311FFECDAC8B8A99C928983818182B2
:1069D000878E98A5B3C3D4E6F80B1D2F404F5D6892
:1069E00071787C7D7C7871685D4F402F1D0BF8E6D7
:1069F000D4C3B3A5988E878281818389929CA9B8DC
:106A0000C8DAECFF14293D4F5F6B757B7D7C776F97
:106A10006354422F1A05EFDAC5B3A3958A838181A7
:106A2000848C97A5B5C8DDF2081D3245566570788F
:106A30007D7D7A746A5D4D3A2611FBE6D1BDAC9C32
:106A4000908781818187909CACBDD1E6FB11263A6D
:106A50004D5D6A747A7D7D7870655645321D08F209
:106A6000DDC8B5A5978C848181838A95A3B3C5DAE7
:106A7000EF051A2F4254636F777C7D7B756B5F4FF8
:106A80003D2914FFE9D4C0AE9E9288828181868E12
:106A90009AA9BBCEE3F80E23384A5A68737A7D7DF3
:106AA000797166584835200BF5E0CBB8A7988D85ED
:106AB0008181838993A0B0C3D7EC02172C40516128
:106AC0006D767C7D7C766D6151402C1702ECD7C3CE
:106AD000B0A09389838181858D98A7B8CBE0F50B11
:106AE000203548586671797D7D7A73685A4A382313
:106AF0000EF8E3CEBBA99A8E8681818288929EAEE3
:106B0000C0D4E9FF172F455868747B7D7B746858A3
:106B1000452F17FFE6CEB8A595898281828995A574
:106B2000B8CEE6FF172F455868747B7D7B74685894
:106B3000452F17FFE6CEB8A595898281828995A554
:106B4000B8CEE6FF172F455868747B7D7B74685874
:106B5000452F17FFE6CEB8A595898281828995A534
:106B6000B8CEE6FF172F455868747B7D7B74685854
:106B7000452F17FFE6CEB8A595898281828995A514
:106B8000B8CEE6FF172F455868747B7D7B74685834
:106B9000452F17FFE6CEB8A595898281828995A5F4
:106BA000B8CEE6FF172F455868747B7D7B74685814
:106BB000452F17FFE6CEB8A595898281828995A5D4
:106BC000B8CEE6FF172F455868747B7D7B746858F4
:106BD000452F17FFE6CEB8A595898281828995A5B4
:106BE000B8CEE6FF172F455868747B7D7B746858D4
:106BF000452F17FFE6CEB8A595898281828995A594
:106C0000B8CEE6FF172F455868747B7D7B746858B3
:106C1000452F17FFE6CEB8A595898281828995A573
:106C2000B8CEE6FF172F455868747B7D7B74685893
:106C3000452F17FFE6CEB8A595898281828995A553
:106C4000B8CEE6FF172F455868747B7D7B74685873
:106C5000452F17FFE6CEB8A595898281828995A533
:106C6000B8CEE6FF172F455868747B7D7B74685853
:106C7000452F17FFE6CEB8A595898281828995A513
:106C8000B8CEE6FF172F455868747B7D7B74685833
:106C9000452F17FFE6CEB8A595898281828995A5F3
:106CA000B8CEE6FF172F455868747B7D7B74685813
:106CB000452F17FFE6CEB8A595898281828995A5D3
:106CC000B8CEE6FF172F455868747B7D7B746858F3
:106CD000452F17FFE6CEB8A595898281828995A5B3
:106CE000B8CEE6FF172F455868747B7D7B746858D3
:106CF000452F17FFE6CEB8A595898281828995A593
:106D0000B8CEE67F7E7D7C7B7A79787776757473F2
:106D10007271706F6E6D6C6B6A69686766656463CB
:106D20006261605F5E5D5C5B5A59585756555453BB
:106D30005251504F4E4D4C4B4A49484746454443AB
:106D40004241403F3E3D3C3B3A393837363534339B
:106D50003231302F2E2D2C2B2A292827262524238B
:106D60002221201F1E1D1C1B1A191817161514137B
:106D70001211100F0E0D0C0B0A090807060504036B
:106D8000020100FFFEFDFCFBFAF9F8F7F6F5F4F35B
:106D9000F2F1F0EFEEEDECEBEAE9E8E7E6E5E4E34B
:106DA000E2E1E0DFDEDDDCDBDAD9D8D7D6D5D4D33B
:106DB000D2D1D0CFCECDCCCBCAC9C8C7C6C5C4C32B
:106DC000C2C1C0BFBEBDBCBBBAB9B8B7B6B5B4B31B
:106DD000B2B1B0AFAEADACABAAA9A8A7A6A5A4A30B
:106DE000A2A1A09F9E9D9C9B9A99989796959493FB
:106DF0009291908F8E8D8C8B8A89888786858483EB
:106E0000828281807E7C7A78767472706E6C6A6819
:106E1000666462605E5C5A58565452504E4C4A4802
:106E2000464442403E3C3A38363432302E2C2A28F2
:106E3000262422201E1C1A18161412100E0C0A08E2
:106E400006040200FEFCFAF8F6F4F2F0EEECEAE8D2
:106E5000E6E4E2E0DEDCDAD8D6D4D2D0CECCCAC8C2
:106E6000C6C4C2C0BEBCBAB8B6B4B2B0AEACAAA8B2
:106E7000A6A4A2A09E9C9A98969492908E8C8A88A2
:106E8000868482807E7C7A78767472706E6C6A6892
:106E9000666462605E5C5A58565452504E4C4A4882
:106EA000464442403E3C3A38363432302E2C2A2872
:106EB000262422201E1C1A18161412100E0C0A0862
:106EC00006040200FEFCFAF8F6F4F2F0EEECEAE852
:106ED000E6E4E2E0DEDCDAD8D6D4D2D0CECCCAC842
:106EE000C6C4C2C0BEBCBAB8B6B4B2B0AEACAAA832
:106EF000A6A4A2A09E9C9A98969492908E8C8A00AA
:106F00000306090C0F1215181B1E2124272A2D30E9
:106F10003336393B3E414346494B4E505255575903
:106F20005B5E6062646667696B6C6E7071727475CB
:106F3000767778797A7B7B7C7D7D7E7E7E7E7E7E99
:106F40007E7E7E7E7E7D7D7C7B7B7A797877767592
:106F5000747271706E6C6B6967666462605E5B59B7
:106F6000575552504E4B494643413E3B39363330DC
:106F70002D2A2724211E1B1815120F0C09060300A9
:106F8000FCF9F6F3F0EDEAE7E4E1DEDBD8D5D2CFA9
:106F9000CCC9C6C4C1BEBCB9B6B4B1AFADAAA8A66F
:106FA000A4A19F9D9B9998969493918F8E8D8B8A87
:106FB0008988878685848483828281818181818199
:106FC0008181818181828283848485868788898A80
:106FD0008B8D8E8F9193949698999B9D9FA1A4A63B
:106FE000A8AAADAFB1B4B6B9BCBEC1C4C6C9CCCFF6
:106FF000D2D5D8DBDEE1E4E7EAEDF0F3F6F9FC18F0
:107000001A1C202224282A2C303234383A3D3F42A0
:1070100045474A4C4E525356595B5D5E6163656706
:10702000696C6D6F717374757778474A4A4B4D4E32
:107030004E4F515253535354555556565656565615
:10704000565656565655555453535352514F4E4E0D
:107050004D4B4A4A477877757473716F6D6C6967E9
:107060006563615E5D5B595653524E4C4A474542DB
:107070003F3D3A383432302C2A282422201C1AE48E
:10708000E2DEDCDAD6D4D2CECCCAC6C4C1BFBCB92B
:10709000B7B4B2B0ACABA8A5A3A1A09D9B9997959E
:1070A00092918F8D8B8A898786B7B4B4B3B1B0B013
:1070B000AFADACABABABAAA9A9A8A8A8A8A8A8A833
:1070C000A8A8A8A8A9A9AAABABABACADAFB0B0B10A
:1070D000B3B4B4B78687898A8B8D8F91929597992F
:1070E0009B9DA0A1A3A5A8ABACB0B2B4B7B9BCBFDF
:1070F000C1C4C6CACCCED2D4D6DADCDEE2E4E60322
:107100000E19232C364049535A636A717773706B9A
:1071100068625F5A56514E494643403F3D3C3C3CB5
:107120003C3C3C3C3D3C3C3D3D3C3C3A39373631B7
:107130002E2B28221F1C1914120F0B0908060505F7
:107140000608080B0E1114191C1F23282B2F343688
:10715000393C3D3D4040404040403F40403F3F3F44
:107160004040404345464B4E53565A5F62686B70F1
:10717000746E68625A514B42392F261C1106FDF27B
:10718000E8DDD4C9BEB5ACA39A928A84878A90936D
:10719000989DA1A4AAADB2B5B8BDBEC0C1C3C3C4B9
:1071A000C3C3C3C3C3C3C3C1C3C3C3C4C6C7CACE97
:1071B000D1D5D8DBE0E3E6EBEEF1F4F7F8F8FAFA34
:1071C000FAF8F5F4F1EEECE8E4E0DBD8D5CFCCC981
:1071D000C6C4C1C1C0BEBEC0C0BEC0C0C0C0C0C0A9
:1071E000C0BEBEBDBAB7B5B0ADA9A4A09D989390DE
:1071F0008A878D939AA3AAB2BBC6D1DAE4EFFA814B
:10720000878D93999FA5ABB1B7BDC3C9CFD5DBE13E
:10721000E7EDF3F7FD04080E14181E22262C303477
:10722000383E42464A4E5054585A5E6264666A6C12
:107230006E7072747678787A7C7C7E7E7E7E7E7EBE
:107240007E7E7E7E7E7C7C7A7878767472706E6CC0
:107250006A6664625E5A5854504E4A46423E38341A
:10726000302C26221E18140E0804FDF7F3EDE7E17A
:10727000DBD5CFC9C3BDB7B1ABA59F99938D87812E
:10728000888E949AA0A6ACB2B8BEC4CAD0D6DCE2AE
:10729000E8EEF4F8FE05090F15191F23272D3135E7
:1072A000393F43474B4F5155595B5F6365676B6D82
:1072B0006F7173757779797B7D7D7E7E7E7E7E7E34
:1072C0007E7E7E7E7E7D7D7B7979777573716F6D35
:1072D0006B6765635F5B5955514F4B47433F39358A
:1072E000312D27231F19150F0905FEF8F4EEE8E2EA
:1072F000DCD6D0CAC4BEB8B2ACA6A09A948E887EA2
:107300007E7E7E7E7E7E7E7E7E7E7E7E7E7E7E7E9D
:107310007E7E7E7E7E7E7E7E7E7E7E7E7E7E7E7E8D
:107320007E7E7E7E7E7E7E7E7E7E7E7E7E7E7E7E7D
:107330007E7E7E7E7E7E7E7E7E7E7E7E7E7E7E7E6D
:107340007E7E7E7E7E7E7E7E7E7E7E7E7E7E7E7E5D
:107350007E7E7E7E7E7E7E7E7E7E7E7E7E7E7E7E4D
:107360007E7E7E7E7E7E7E7E7E7E7E7E7E7E7E7E3D
:107370007E7E7E7E7E7E7E7E7E7E7E7E7E7E7E812A
:1073800081818181818181818181818181818181ED
:1073900081818181818181818181818181818181DD
:1073A00081818181818181818181818181818181CD
:1073B00081818181818181818181818181818181BD
:1073C00081818181818181818181818181818181AD
:1073D000818181818181818181818181818181819D
:1073E000818181818181818181818181818181818D
:1073F000818181818181818181818181818181F20C
:10740000F6FAFD03070A0D1013181E252C353E470A
:107410004F565D62656767666563615F5C5A595880
:10742000595B5D6165686B6D6D6B6864605B554F42
:107430004840372C211509FFF4EAE1D8D1CCC9CA5C
:10744000CED5DFE9F3FD050C1114161614110E0B41
:107450000908090B0E111417191A1A191714110D0E
:107460000907050506080B0E101315171A1D202213
:107470002323211E1B19191A1E252E39444F5A6326
:10748000696B69635A4D3E2F21160D060303050AE9
:1074900010161B20242625221D180F05FAEDDFD219
:1074A000C5B9AFA8A4A3A5AAB1BAC5D0DAE2E7EAE4
:1074B000EAE7E1DAD2C9C0B6ADA59E9A999A9FA52E
:1074C000ADB5BEC6CDD1D4D5D5D3D0CDCCCDD0D40D
:1074D000D9DEE4E9EDF1F4F7FAFDFEFDFAF6F0E9A4
:1074E000E1D8CFC5BCB3ACA5A09B9894918E8C8BF2
:1074F0008C8E9298A0A9B3BDC7D1DAE2E6EAEE0A73
:107500002240575C564E42321C01F2F604141A1EF9
:1075100022282C30343E5060625A524E4A46403A3D
:1075200038383424120600F6E4D0C0BABEC0BABE61
:10753000C0BAB0A8A4A2A4ACB8C2C4BEB2AAAAAA37
:10754000A49C9BA6C0E0FA0202FEF6F0EEEEEBE091
:10755000D2C4C0C6D2DEE0E0E4F00418201A06F07F
:10756000DCD2CCC6C2C0C8DAF40A1A1C0EFAE4D6C1
:10757000D8DCDCD6CFCACCD2D0CAC6C7CAD0D6DEF9
:10758000E6F0F6FA000E222B28201A181A1C160E06
:107590000600FAF4F4F9FE00FEF4ECEEF4F2ECE688
:1075A000E4E4E8F2FC0A24383E3F403E36260CF084
:1075B000DAD4D4D8DEE6F0FC061624303A3A2E248B
:1075C00020201E1809F8ECECF2FF0A182630383C8F
:1075D0004040403E3C40464B4C44321E120A03FCA5
:1075E000EEDED6D4D4DADCDADAE0EC0022466674D9
:1075F00072685E5042322218161C222A34383838FB
:10760000363206FEFDFEF4EEECF0E6E6E6ECDEE0F9
:10761000E0E4D6DAD8D8CCD0D2D0CCCED4CECED02E
:10762000D6CED0D2D8CCD0D4D6D0D6DCDEDAE0E8F4
:10763000E4E2E8F0E8ECF0F6EEF4F8FEF800040618
:1076400002070E0C0A0D100C121012080A0808FA94
:10765000FEFE03EE001828303E4C4C4A494A3E38A4
:10766000373A353A4450505A636A60615E5A4A4824
:1076700048423E424A464A4C5446443C3C26221A22
:10768000180A0E10100A0C0E04FEF8F6E4DCD4D42E
:10769000C6C6C8CCC2C6C8C6BABAB6AEA2A1A29A5D
:1076A000989CA49EA3A6AEA2A6A4A79A9EA0A29EC2
:1076B000A6B0B2B4BCC6C1C4C8CEC6CACED6D1DB91
:1076C000E4EDEBF6FE0000060E0A080E1610151C7F
:1076D00028242A303830363A3C34383E3C383E4450
:1076E0004042464E444644483A3C3E40363A3C3A94
:1076F000323438302A2A2C1E1A181C0E1010140688
:1077000008060008131E222E3C464A5664666C7218
:107710007A7476747464625C5446423E32261E1A51
:107720000800FAF8E6E4DFDCD0D2D4D2D0D4DAD440
:10773000D4D6DAD2D6D8DAD0D2D4D0CACACCC1BE46
:10774000B8B8A8A6A2A2969898948E929894989E5B
:10775000A8A4ACB4BEC0CCD8E1E6F2000209141E65
:107760001E262C322E34383A363A3E3936363A30E6
:10777000303032282A2A2A23272C2A282C322C2C53
:1077800030362E3235362E30322E2A2A2C221E1832
:107790001808060200F2F0ECE4DAD8D8CECACACC57
:1077A000C0C0C2C4BCC2C6C8C4CAD2CFD2D8E0DC32
:1077B000E2E5EAE4EAF0F0EEF2F6F2F2F4FAF3F6D9
:1077C000F8FCF4F8FAFCF8FE020002070E0C1018A0
:1077D0001C1C222A2A2A2E363234373C3438393AB5
:1077E000323334302828291E1C16120A0E0602FED7
:1077F000FEFCF2E6E2E0D4D0CED4CCD2DAE2E4EE83
:10780000FA00FEFAF6F6EAEBEAEAE6E8ECEAE8EC79
:10781000F2F0F4FA00000610181A2530363A424CFD
:107820004C52585E5B5E62645E60625C56545246C7
:107830003E3632201A1008F8F2EAE0D2CAC6B8B0D2
:10784000A8A69895909086888888848A8E8E90962F
:107850009E9EA4ACB4B6BEC8CED0DAE2E6EBF4FC91
:10786000FC00040A060A101210141615121418123D
:10787000131416101214141014181614181E1A1CAF
:10788000202624282C302C303637363A3E3A3A3AE5
:107890003E383838382E2E2C28201E1E140E0A088A
:1078A000FEFAF4F2E6E4E0DCD2D0D0C9C4C4C6BE2D
:1078B000BEBEC0BABEC2C3C0C6CACCCCD2DADADE43
:1078C000E4EAEAF0F8F8FA000402060A100D1214CD
:1078D0001812161A1816181C1616171A1416181A33
:1078E000141618161216181414161A1417181C1633
:1078F0001A1C1C1818161416161410141412080644
:107900000300000814202832404A545E6A70767CD6
:1079100078766C64645A5042362A1C0E00F4E2D623
:10792000C8BCAEA49E9492908F8E96989CA3AAAE4B
:10793000B6BEC4CCD6E0E4ECF4F8FC000404060ABD
:107940000A0A0E121214181A1A1E2222262A2C2D86
:107950003236383A3E403E40403C3A36342A2620C1
:10796000160E0800F6EFE6DED2CCC6BCB8B4B0AC5A
:10797000ACAEAEB0B4BABCC3CAD0D6E0E8EFF80043
:10798000060C141A1E22282A2C2E302E30302E2CB3
:107990002C2B262424221C1C1A161614141010102A
:1079A0000C0A0A0A05040200FEFCFAF4F2F0ECE705
:1079B000E4E2DCDAD8D6D2D2D4D0D2D4D6D6DADE4B
:1079C000E0E4EAF0F4FA0004080F16181D22262855
:1079D0002A2E2C2E302E2C2A2A2622201E16141255
:1079E0000C08060400FEFCF8F6F4F2EEF0ECE8E613
:1079F000E4E2DAD6D3CECACACCCCD2DAE2E8F4FEDC
:107A0000000000020000FAF6F3F2F0F8FE08142578
:107A100032404D5960676B6B6967655D554B41300E
:107A2000200EFAE6D2C3B1A79E99979B9FA4ABB54F
:107A3000BCC2CAD2D9E0EAF2F8FE02040607060484
:107A400004020202060C101821282E353B3D3F414E
:107A5000403D3A362E27201408FEF2E1D6CAC0B7C0
:107A6000B3B0AFB1B5BBC0C9D1D8E0EAF2F80008F5
:107A70000D12181C1C1E1E1C1A181814141616178A
:107A80001A1D1E2023222221211D1A18140D08025E
:107A9000FAF4ECE4DAD4CFC8C5C5C6C6CBD0D5DA83
:107AA000E3EAF1F800060B12181C202424242323F7
:107AB0001E1D1B18141212100E0E0F0C0E0E0C0AA7
:107AC0000A0906040200FCF9F6F0ECE8E4E0DDDC6B
:107AD000D8D8D9DBDCE1E6EAF0F6FC00060C10159C
:107AE0001A1E1E20232220201E1A18100C0A080419
:107AF000040200000000FEFCFCFCFAFAFA0A0C0486
:107B00000E12140800EEE2CEC6C0C1C4D1DEEDFAFA
:107B1000060E12100E04FEF4EEE6E6E9EEF4000A9C
:107B2000141C24282726221A140C08000000020620
:107B30000E161A202424221D180C02FCF4ECEAEC88
:107B4000EEF2FA00040A0C0A04FEF8ECE3DCDAE1D7
:107B5000E8F0FA0004060602FEF8F2EAE8E8EAEEC7
:107B6000F600060C1418181816100A0602FEFE007D
:107B700002060C12161A1C1B18140C00F6E8DCCDB9
:107B8000C8C8D2E0FA1430485B635B4D3416F7DEA8
:107B9000CCC6CCE400244669767B76623A18F0D3F2
:107BA000B8B3B5C8E0041E3A464E3E2C0CF2CAB437
:107BB0009F9997A7B8D0E4FC060C0804F6E6D4C851
:107BC000B9B4B4B9C0CEDEECF8040D121416120C20
:107BD0000600F8F4F2F2F3FC06121E2F3A4043437B
:107BE000382D1C10FEF5EEEEF2000C1A2834383455
:107BF0002C1E0AF8E4D6C9C7CBD4E0F1000802FD78
:107C0000F6F4F800080C0E05FEF6F3F4F8FE000892
:107C10000802FE000A080400F5F0EEF2F800FE008B
:107C20000616202210FAD3CEDCF60C1C1816181AF1
:107C30001404ECD4C6D4FC30545436FACCB6CAED95
:107C40001E383C1F0A000000FCE0DCEA0C3A5853E6
:107C50001CE0B6BEDF041E2C1E161220241CEECA29
:107C6000B2CE003B5E5824E8C4CCE9020D040016F5
:107C70002A342C04D7B4BADC1436422E12F5EEEDB9
:107C8000F0EAE5E4FA102E332401E4D6E2FC121EF9
:107C90001A0C02000000FCF4F1FC0E252E260DF853
:107CA000E4FEF2020C14121213151008FAF0ECFAAA
:107CB000081A1C1606FAF5F900040606080A0E0C46
:107CC00004FAF0ECF2FE0C14130A02FBF8F8F8F8D0
:107CD000FAFC02080C0800F8F2F2F8010600F8F6C7
:107CE000020E0F00F6F0ECF2FA02060A0A07040888
:107CF0000804ECDEE0EC0012282E2107F4A6F818A8
:107D0000735AFFFC1AB4BAE548D8031A5E40E7522A
:107D1000639BC7DED0019301CFC3A87593F30BB863
:107D2000B06F95AA918F3C2AF43A1EA9928C6DD21D
:107D30004CC25C669B2B46D279C2170CA826ACEDD0
:107D40006BC04BF1AD98E191A8C5FFB3EEFF08649D
:107D50008F27DA499D5A65F85DE91ABED73FFBF5D2
:107D6000161BD7E46014EEE3A25F8BAA424EC30752
:107D7000D36D7AF8A5C96042B232631E0A22F08B35
:107D800014757853D4B38071921739C1130EFD3A2C
:107D900039DB8D26B1147C021FBE33035F95D4F30B
:107DA0003EE78BD75F84038F1E9F99F199B7EA83D3
:107DB000D2D8F14EF8BFD10CC7CD6206A8C4C574A5
:107DC0005FABF8CA93FABD94DE48CAF7BDA712E8C4
:107DD000A4F3A02C60B0CDBBBC48DC86E8BE345A0E
:107DE000B922414CB1F0425CE00F0351211FD2781F
:107DF000A9DE22C309B12F6B03B91FA45B00007F6A
:107E00008285888B8E9194979A9DA0A3A6A9ACAFEA
:107E1000B2B5B8BABDC0C2C5C8CACDCFD1D4D6D804
:107E2000DADDDFE1E3E5E6E8EAEBEDEFF0F1F3F4CC
:107E3000F5F6F7F8F9FAFAFBFCFCFDFDFDFDFDFD9A
:107E4000FDFDFDFDFDFCFCFBFAFAF9F8F7F6F5F493
:107E5000F3F1F0EFEDEBEAE8E6E5E3E1DFDDDAD8B8
:107E6000D6D4D1CFCDCAC8CEC2C0BDBAB8B5B2AFD4
:107E7000ACA9A6A3A09D9A9794918E8B8885827FAA
:107E80007B7875726F6C696663605D5A5754514EAA
:107E90004B484543403D3B383533302E2C29272570
:107EA00023201E1C1A1817151312100E0D0C0A0988
:107EB000080706050403030201010000000000009A
:107EC0000000000000010102030304050607080981
:107ED0000A0C0D0E1012131517181A1C1E2023253C
:107EE00027292C2E303335383B3D404345484B4EF7
:107EF0005154575A5D606366696C6F7275787B0088
:107F00000102030405060708090A0B0C0D0E0F10E9
:107F10001112131415161718191A1B1C1D1E1F20D9
:107F20002122232425262728292A2B2C2D2E2F30C9
:107F30003132333435363738393A3B3C3D3E3F40B9
:107F40004142434445464748494A4B4C4D4E4F50A9
:107F50005152535455565758595A5B5C5D5E5F6099
:107F60006162636465666768696A6B6C6D6E6F7089
:107F70007172737475767778797A7B7C7D7E7F8079
:107F80008182838485868788898A8B8C8D8E8F9069
:107F90009192939495969798999A9B9C9D9E9FA059
:107FA000A1A2A3A4A5A6A7A8A9AAABACADAEAFB049
:107FB000B1B2B3B4B5B6B7B8B9BABBBCBDBEBFC039
:107FC000C1C2C3C4C5C6C7C8C9CACBCCCDCECFD029
:107FD000D1D2D3D4D5D6D7D8D9DADBDCDDDEDFE019
:107FE000E1E2E3E4E5E6E7E8E9EAEBECEDEEEFF009
:107FF000F1F2F3F4F5F6F7F8F9FAFBFCFDFEFF00F9
:020000040030CA
:0E000000240E3F1EFF8181FF0FC00FE00F4056
:00000001FF
